:100000000C947C020C9499020C9499020C94990221
:100010000C9499020C9499020C9499020C949902F4
:100020000C9499020C9499020C949A170C94D4177E
:100030000C9499020C9499020C9499020C949902D4
:100040000C9499020C9499020C9499020C949902C4
:100050000C9465030C9499020C9499020C94DC02A4
:100060000C9499020C9499020C9499020C949902A4
:100070000C9499020C9499020C9499020C94990294
:100080000C9499020C9499020C9499020C94060415
:100090000C9499020C9499020C9499020C94990274
:1000A0000C9499020C9499020C9499023B173717FF
:1000B00033172F172B17271723171F171B17171760
:1000C00013170F170B1707170317FF16FB16F71653
:1000D000F316EF16EB16E716E316DF16DB16D71648
:1000E000D316CF16CB16C716C316BF16BB16B71638
:1000F000B316AF16AB16A716A3169F169B16971628
:1001000093168F168B16871683167F167B16771617
:1001100073166F166B16671663165F165B16571607
:1001200053164F164B16471643163F163B1605A897
:100130004CCDB2D44EB93836A9020C50B99186884C
:10014000083CA6AAAA2ABE000000803F6E616E008D
:10015000696E660000407A10F35A00A0724E1809CA
:100160000010A5D4E80000E87648170000E40B541E
:10017000020000CA9A3B000000E1F50500008096ED
:100180009800000040420F000000A086010000001F
:10019000102700000000E8030000000064000000D9
:1001A00000000A00000000000100000000002C76A2
:1001B000D888DC674F0823DFC1DFAE59E1B1B796BD
:1001C000E5E3E453C63AE651997696E8E6C284261A
:1001D000EB898C9B62ED407C6FFCEFBC9C9F40F2F6
:1001E000BAA56FA5F490055A2AF75C936B6CF96772
:1001F0006DC11BFCE0E40D47FEF520E6B500D0ED37
:10020000902E0300943577050080841E080000209E
:100210004E0A000000C80C333333330F986E12833C
:100220001141EF8D2114893BE65516CFFEE6DB1810
:10023000D1844B381BF77C1D901DA4BBE4242032D5
:1002400084725E228100C9F124ECA1E53D27000102
:100250000000FB021200020000B80243000300008D
:10026000B40204010309049E021402030904860275
:10027000160303090478020C0C033100320033002A
:1002800034003500000016035500530042002000E2
:10029000530065007200690061006C0000001403E7
:1002A00059006F007500720020004E0061006D0063
:1002B000650000000403090409024300020100C0B4
:1002C00032090400000102020100052400100105AA
:1002D0002401010104240206052406000107058209
:1002E0000310004009040100020A00000007050392
:1002F00002400000070584024000001201000202D3
:10030000000010C0167A040001010203010001C1BF
:1003100012018036018136000000000000005F00FD
:10032000000007000700147F147F14242A7F2A127C
:10033000231308646236495522500005030000006B
:100340001C2241000041221C0014083E0814080829
:100350003E080800503000000808080808006060E7
:10036000000020100804023E5149453E00427F40F3
:100370000042615149462141454B311814127F100A
:1003800027454545393C4A4949300171090503363D
:1003900049494936064949291E00363600000056AB
:1003A00036000008142241001414141414004122D1
:1003B00014080201510906324979413E7E1111119A
:1003C0007E7F494949363E414141227F4141221CBD
:1003D0007F494949417F090909013E4149497A7FDD
:1003E0000808087F00417F41002040413F017F080D
:1003F0001422417F404040407F020C027F7F04086E
:10040000107F3E4141413E7F090909063E4151218D
:100410005E7F09192946464949493101017F010199
:100420003F4040403F1F2040201F3F4038403F6337
:100430001408146307087008076151494543007F99
:1004400041410002040810200041417F00040201E4
:100450000204404040404000010204002054545433
:10046000787F484444383844444420384444487FE2
:100470003854545418087E0901020C5252523E7FDF
:100480000804047800447D40002040443D007F1073
:1004900028440000417F40007C041804787C080454
:1004A000047838444444387C14141408081414188C
:1004B0007C7C080404084854545420043F444020E1
:1004C0003C4040207C1C2040201C3C4030403C44B0
:1004D000281028440C5050503C4464544C440008AC
:1004E00036410000007F0000004136080010080877
:1004F000100878464146780011241FBECFEFDAE09D
:10050000DEBFCDBF12E0A0E0B1E0E6EFFAE402C04A
:1005100005900D92AE3CB107D9F726E0AEECB2E003
:1005200001C01D92A631B207E1F70E9400150C949C
:1005300079250C94000085B5877F85BD85B58460DD
:1005400085BD85B58D7F85BD85B5816085BDEEE6B0
:10055000F0E08081816080830895E1E8F0E08081AF
:10056000877F808380818F7E808380818B7F808363
:1005700080818260808380818E7F8083EFE6F0E0DF
:100580008081816080830895E1E9F0E08081877F48
:10059000808380818F7E808380818460808380815E
:1005A0008D7F808380818E7F8083E1E7F0E0808192
:1005B00081608083089508951F920F920FB60F9265
:1005C00011248F939F938091F6029091F702892BCB
:1005D00009F580914E0290914F02892BD9F48091B8
:1005E000E3029091E40201969093E4028093E30287
:1005F0008091D3029091D40201969093D40280937B
:10060000D30280919A0390919B03019690939B0350
:1006100080939A038091E502882319F02B9A2A9AF5
:1006200002C02B982A988091CE02880F8093CE0228
:100630008091CE028F738093CE028FB19091CE02C3
:1006400086FB882780F9892B8093CE028FB1909109
:10065000CE0285FB882780F9892B8093CE0289B151
:100660009091CE0286958170892B8093CE0283B1C2
:100670009091CE0286958170892B8093CE0289B1AC
:100680009091CE0286FB882780F9892B8093CE0239
:1006900083B19091CE0286FB882780F9892B8093C5
:1006A000CE028091CE028F3319F481E080937703DC
:1006B0008091CE02811102C0109277039F918F9199
:1006C0000F900FBE0F901F9018951F920F920FB6AC
:1006D0000F9211242F934F935F936F937F938F9378
:1006E0009F93AF93BF938091F6029091F702892B6D
:1006F00099F48091DB029091DC02A091DD02B0912F
:10070000DE020196A11DB11D8093DB029093DC02F5
:10071000A093DD02B093DE028091C1039091C203E9
:100720008F3F91407CF180910603909107034091A7
:10073000DB025091DC026091DD027091DE02092E35
:10074000000CAA0BBB0B84179507A607B707D0F4BC
:100750008091780390917903019690937903809327
:1007600078038091A4039091A50301969093A5032B
:100770008093A4031092DB021092DC021092DD023F
:100780001092DE028091C1039091C2038F3F91408D
:100790007CF580910203909103034091DB0250911C
:1007A000DC026091DD027091DE02092E000CAA0BC2
:1007B000BB0B84179507A607B707D0F48091780381
:1007C00090917903019790937903809378038091B6
:1007D000A4039091A50301979093A5038093A4038C
:1007E0001092DB021092DC021092DD021092DE0207
:1007F000BF91AF919F918F917F916F915F914F9139
:100800002F910F900FBE0F901F9018951F920F926F
:100810000FB60F9211248F939F93AF93BF93809144
:10082000D7029091D802A091D902B091DA02019634
:10083000A11DB11D8093D7029093D802A093D90235
:10084000B093DA02BF91AF919F918F910F900FBE3D
:100850000F901F901895CF92DF92EF92FF92CF9357
:100860006091E3027091E402C6B5072E000C880B7C
:10087000990B0E94802020E030E040E853E40E9481
:1008800074216B017C016C2F70E080E090E00E948D
:1008900080209B01AC01C701B6010E94601F20E0CF
:1008A00030E040E854E40E94742120E034E244EF58
:1008B0005AE40E94D61F0E9448207093D60260938B
:1008C000D5026091D5027091D602072E000C880BDC
:1008D000990B0E94802020E030E040E752E40E9423
:1008E0006F2187FD11C01092E4021092E302809103
:1008F000CF029091D00201969093D0028093CF02C4
:100900001092D6021092D5028091D5029091D60213
:10091000CF91FF90EF90DF90CF9008950F931F93AA
:10092000CF93DF93E9ECF3E000E010E080818111E8
:100930003AC00E94222321E1209FE001219FD00D97
:100940001124C753DC4F64E570E00E947122BC01A2
:1009500065507109072E000C880B990B0E948020AE
:1009600069837A838B839C830E9422236AE270E0EE
:100970000E947122BC016A5F7F4F072E000C880B1A
:10098000990B0E9480206D837E838F83988781E0FE
:1009900088838091EB029091EC0201969093EC0297
:1009A0008093EB0207C00F5F1F4F71960530110552
:1009B00009F0BCCFDF91CF911F910F910895ECE129
:1009C000F3E080E090E0208121112CC021E1289FFC
:1009D000F001299FF00D1124E45EFC4F8091040288
:1009E00090910502A0910602B09107028183928343
:1009F000A383B4838091000290910102A09102022E
:100A0000B091030285839683A783B08781E08083BA
:100A10008091E7029091E80201969093E80280931A
:100A2000E7020895019671968530910561F6089563
:100A30008091A603811123C0809104029091050248
:100A4000A0910602B09107028093A7039093A80398
:100A5000A093A903B093AA03809100029091010290
:100A6000A0910202B09103028093AB039093AC0378
:100A7000A093AD03B093AE0381E08093A6030895E5
:100A8000CF92DF92EF92FF92CF936091E10270914B
:100A9000E202C6B5072E000C880B990B0E9480203D
:100AA00020E030E040E853E40E9474216B017C01B7
:100AB0006C2F70E080E090E00E9480209B01AC01F0
:100AC000C701B6010E94601F20E030E040E854E416
:100AD0000E94742120E034E244EF5AE40E94D61FC1
:100AE0000E9448207093D4026093D3028091D30275
:100AF0009091D402CF91FF90EF90DF90CF90089526
:100B0000CF92DF92EF92FF92CF936091DF027091CC
:100B1000E002C6B5072E000C880B990B0E948020BE
:100B200020E030E040E853E40E9474216B017C0136
:100B30006C2F70E080E090E00E9480209B01AC016F
:100B4000C701B6010E94601F20E030E040E854E495
:100B50000E94742120E034E244EF5AE40E94D61F40
:100B60000E9448207093D2026093D1028091D102FA
:100B70009091D202CF91FF90EF90DF90CF900895A7
:100B8000CF93DF930E942B04EC018091CA019091D6
:100B9000CB01C817D90769F48091EB029091EC0260
:100BA000059714F40E948E042296D093CB01C09333
:100BB000CA01DF91CF910895CF93DF930E942B0458
:100BC000EC018091B8019091B901C817D90769F477
:100BD0008091E7029091E802059714F40E94DF04E7
:100BE0002396D093B901C093B801DF91CF910895B6
:100BF000CF93DF930E942B04EC0180917A019091B6
:100C00007B01C817D90759F48091F302882339F082
:100C10000E9418052596D0937B01C0937A01DF913D
:100C2000CF9108950E942B042091640130916501B9
:100C30008217930759F42091E502222339F010928C
:100C4000E5020A969093650180936401089580916E
:100C50004E0290914F02019799F50E944D1921E0A3
:100C60004BE552E06AE070E080E090E00E94561BA5
:100C700021E04AE652E064E170E080E090E00E940A
:100C8000561B21E044E752E06EE170E080E090E026
:100C90000E94561B7D9B11C010924F0210924E0273
:100CA0001092F7021092F6022FEF80E792E02150A7
:100CB00080409040E1F700C000000E943A19C7CF81
:100CC00008957D9B22C08091F6029091F702892BB6
:100CD000E1F480914E0290914F020197B1F0809122
:100CE000F8029091F902019781F02FEF81EE94E0E4
:100CF000215080409040E1F700C0000081E090E08A
:100D00009093F7028093F60208957D9B0DC02FEF1C
:100D100081EE94E0215080409040E1F700C0000057
:100D20001092F7021092F6020895EEE1F4E01192AB
:100D300084E0E237F807D9F708958F929F92AF9237
:100D4000BF92CF92DF92EF92FF920F931F93CF93B8
:100D5000DF936C015B014A01E901E12CF12CEC14F9
:100D6000FD048CF4F801619171918F018991999141
:100D7000680D791D41E08A0D9B1D0E945519FFEFFA
:100D8000EF1AFF0AECCFDF91CF911F910F91FF90E7
:100D9000EF90DF90CF90BF90AF909F908F9008958D
:100DA000EAE7F3E082E190E0918380838FE090E0D6
:100DB000938382838DE090E09583848389E190E042
:100DC000978386839187808723E230E03387228769
:100DD000958784872DE230E037872687318B208BFB
:100DE0002AE030E0338B228B4CE350E0558B448B70
:100DF000378B268B2AE330E0318F208F938F828FC1
:100E000088E490E0958F848F8EE190E0978F868FB5
:100E10000895EAE7F3E08CE490E09183808386E430
:100E200090E09383828389E490E09583848380E5D6
:100E300090E0978386838AE390E0918780872AE118
:100E400030E0338722879587848784E290E0978714
:100E500086878CE090E0918B808B80E290E0938B92
:100E6000828B2BE130E0358B248B978B868B8EE247
:100E700090E0918F808F8DE090E0938F828F8CE354
:100E800090E0958F848F82E190E0978F868F089510
:100E90000F93209175033091760340919C035091FC
:100EA0009D03609104037091050301E08091A2030A
:100EB0009091A3030E948E19209112033091130385
:100EC0004091C5035091C6036091FE027091FF02EC
:100ED00080917103909172030E948E192091730387
:100EE0003091740340919E0350919F036091C7031A
:100EF0007091C80380911403909115030E948E197C
:100F00002091BD033091BE034091B7035091B803C7
:100F10006091C3037091C40380910C0390910D0301
:100F20000E948E190F910C949506CF93DF936091D8
:100F30007A0370917B0380917803909179039B01F0
:100F4000281B390B3093A3032093A20340917C0309
:100F500050917D038091A4039091A503DA01A81B11
:100F6000B90BB0930503A093040320917E03309145
:100F70007F038091780390917903E901C81BD90B15
:100F8000D0939D03C0939C03809180039091810333
:100F9000E091A403F091A503EC01CE1BDF0BFE0151
:100FA000D0937603C0937503D197BCF06852710952
:100FB00070937B0360937A034852510950937D03E9
:100FC00040937C032852310930937F0320937E03A2
:100FD00088979093810380938003399724F58091BB
:100FE0007A0390917B03899690937B0380937A0395
:100FF00080917C0390917D03899690937D038093EB
:101000007C0380917E0390917F03899690937F0368
:1010100080937E03809180039091810389969093C1
:1010200081038093800380918203909183032091B8
:10103000780330917903280F391F3093720320937E
:10104000710337FF03C08C5A9F4F05C0253531050A
:1010500034F08555910990938303809382038091A6
:101060008403909185039093FF028093FE02809108
:101070008603909187032091780330917903280F9C
:10108000391F3093C6032093C50337FF03C08C5A22
:101090009F4F05C02535310534F085559109909352
:1010A00087038093860380918803909189039093AE
:1010B00013038093120380918A0390918B03909382
:1010C00015038093140380918C0390918D032091DC
:1010D000A4033091A503280F391F3093C803209330
:1010E000C7032930310514F4879604C02133310534
:1010F0002CF0889790938D0380938C0380918E03BE
:1011000090918F0390939F0380939E03809190030F
:10111000909191032091A4033091A503280F391FCA
:1011200030937403209373032930310514F48796A8
:1011300004C0213331052CF088979093910380935C
:101140009003609192037091930380917803909142
:101150007903860F971F90930D0380930C034091A2
:101160009403509195038091A4039091A503DA0113
:10117000A81BB90BB093C403A093C303209196039B
:10118000309197038091780390917903820F931F98
:101190009093B8038093B70380919803909199033B
:1011A000E091A403F091A503EC01CE1BDF0BFE013F
:1011B000D093BE03C093BD03D197BCF0685D7F4F51
:1011C000709393036093920348525109509395038F
:1011D00040939403285D3F4F3093970320939603E9
:1011E00088979093990380939803399724F5809179
:1011F0009203909193038897909393038093920323
:101200008091940390919503889690939503809391
:1012100094038091960390919703889790939703F6
:101220008093960380919803909199038896909368
:10123000990380939803DF91CF910C944807CF9244
:10124000DF92EF92FF920F931F93609100027091D3
:10125000010280910202909103020E9448206B01DA
:101260007C016091040270910502809106029091C8
:1012700007020E9448200CEC11E026EE31E0A601A6
:101280008DE090E00E949D061F910F91FF90EF90DE
:10129000DF90CF900895CF92DF92EF92FF920F935D
:1012A0001F9360914602709147028091480290918D
:1012B00049020E9448206B017C016091ED0270910F
:1012C000EE028091EF029091F0020E9448200CE023
:1012D00012E028E232E0A6018EE090E00E949D0636
:1012E0001F910F91FF90EF90DF90CF9008950F9393
:1012F0001F9340910A0350910B036091A0037091DA
:10130000A10300E011E022E331E089E190E00E94D6
:101310009D061F910F9108956091ED027091EE026C
:101320008091EF029091F0020E9448207093A103F7
:101330006093A00360914602709147028091480239
:10134000909149020E94482070930B0360930A0316
:101350000895E9ECF3E01082118A12A213AA109208
:101360000D040895ECE1F3E01082118A12A213AA91
:1013700010926003089581E08093F3021092F702C7
:101380001092F6021092EA021092E9021092BA0349
:101390001092B9031092EC021092EB021092E80244
:1013A0001092E7020E942B0402969093CB01809347
:1013B000CA010E942B0403969093B9018093B8014F
:1013C0000E942B04059690937B0180937A011092E2
:1013D000E2021092E1021092E0021092DF021092FB
:1013E000A5031092A40310927903109278030E942F
:1013F000A9090E94B2091092A6030E94090710923F
:10140000E5021092E60260910A0270910B02072E2B
:10141000000C880B990B0E9480206093ED02709362
:10142000EE028093EF029093F002609108027091B7
:101430000902072E000C880B990B0E9480206093F4
:10144000460270934702809348029093490260914C
:10145000F1027091F2026B5F7F4F072E000C880B38
:10146000990B0E9480206093040270930502809380
:1014700006029093070260914A0270914B026B5FE3
:101480007F4F072E000C880B990B0E9480206093E1
:101490000002709301028093020290930302089568
:1014A000CF93DF936091F1027091F202072E000C4E
:1014B000880B990B0E9480206093ED027093EE02DE
:1014C0008093EF029093F00260914A0270914B0278
:1014D000072E000C880B990B0E9480206093460217
:1014E000709347028093480290934902C5E0D0E090
:1014F000D0934502C09344021092F5021092F40278
:1015000060910A0270910B02072E000C880B990B58
:101510000E9480206093040270930502809306026B
:10152000909307026091080270910902072E000C47
:10153000880B990B0E948020609300027093010237
:1015400080930202909303021092D0021092CF0275
:101550001092D6021092D5021092E4021092E30289
:101560001092F7021092F6021092A5031092A403B3
:1015700010927903109278031092EA021092E90215
:101580001092BA031092B9031092EC021092EB027F
:101590001092E8021092E70282E090E09093CB0173
:1015A0008093CA0183E090E09093B9018093B801E1
:1015B000D0937B01C0937A011092E2021092E10273
:1015C0001092E0021092DF020E94A9090E94B20963
:1015D0001092A6030E94D0061092E6021092E50235
:1015E0001092F30281E090E090934D0280934C02C0
:1015F000DF91CF9108958091F8029091F9020197BF
:10160000A9F50E944D1921E042E852E06AE070E03D
:1016100080E090E00E94561B21E04CE852E064E13B
:1016200070E080E090E00E94561B21E049E952E022
:101630006EE170E080E090E00E94561B7D9B13C03D
:101640000E94500A2FEF80E792E0215080409040A6
:10165000E1F700C000001092F9021092F802109217
:10166000F7021092F6020E943A19C5CF08957E9BA8
:1016700019C08091F302811115C02FEF81EE94E023
:10168000215080409040E1F700C000000E94BB095B
:1016900080914C0290914D02019690934D0280935F
:1016A0004C0208957E9B15C08091F302882389F037
:1016B0002FEF81EE94E0215080409040E1F700C090
:1016C000000081E090E09093F9028093F8020C947E
:1016D000FB0A08951092A60308950F931F9380911B
:1016E000E602882381F04091BB035091BC036091D6
:1016F0000803709109030CE711E022E931E08BE067
:1017000090E00E949D061F910F9108958EE190E058
:101710009093BC038093BB039093090380930803C9
:101720001092E6020895CF92DF92EF92FF920F930C
:101730001F93CF93DF93C9ECD3E088818823B9F05E
:101740006D817E818F8198850E9448206B017C018C
:1017500069817A818B819C810E9448200AEB11E08B
:1017600022EC31E0A60184E090E00E949D066196A3
:1017700084E0CE31D80709F7DF91CF911F910F9107
:10178000FF90EF90DF90CF900895CF92DF92EF928D
:10179000FF920F931F93CF93DF93CCE1D3E0888127
:1017A0008823B9F06D817E818F8198850E944820C1
:1017B0006B017C0169817A818B819C810E94482028
:1017C00008EA11E020EB31E0A60184E090E00E94FD
:1017D0009D06619683E0C137D80709F7DF91CF9165
:1017E0001F910F91FF90EF90DF90CF900895CF92CF
:1017F000DF92EF92FF920F931F938091A6038823AD
:10180000F9F06091AB037091AC038091AD039091BE
:10181000AE030E9448206B017C016091A703709188
:10182000A8038091A9039091AA030E94482006E68C
:1018300011E020E731E0A60185E090E00E949D06DE
:101840001F910F91FF90EF90DF90CF9008952F920E
:101850003F924F925F926F927F928F929F92AF9240
:10186000BF92CF92DF92EF92FF920F931F93CF938D
:10187000DF93C9ECD3E084E5282E312C0BE210E095
:101880008881882309F4C7C08090ED029090EE0211
:10189000A090EF02B090F002C501B4010E94E121D6
:1018A0002B013C01C980DA80EB80FC8020E030E035
:1018B00040E050E4C701B6010E94601F0E94E12190
:1018C0009B01AC01C301B2010E94CC1F87FFA3C0E2
:1018D00020E030E040EA50E4C501B4010E94601FFE
:1018E0000E94E1214B015C01C701B6010E94E12188
:1018F0009B01AC01C501B4010E946F2118160CF0C8
:101900008AC08090460290904702A0904802B09012
:101910004902C501B4010E94E1212B013C01CD80A7
:10192000DE80EF80F88420E030E040E050E4C70142
:10193000B6010E94601F0E94E1219B01AC01C3011E
:10194000B2010E94CC1F87FF66C020E030E040E873
:1019500050E4C501B4010E94601F0E94E1214B01C7
:101960005C01C701B6010E94E1219B01AC01C501E8
:10197000B4010E946F2118160CF04DC08091F40242
:101980009091F50201969093F5028093F402809174
:10199000EB029091EC0201979093EC028093EB02A2
:1019A0008091E9029091EA0201969093EA02809375
:1019B000E9020E942223B1010E947122BC01990F09
:1019C000880B990B0E94802069837A838B839C8388
:1019D0000E942223B8010E947122BC01605F7F4FE8
:1019E000072E000C880B990B0E9480206D837E834C
:1019F0008F83988718820E942B0402969093CB01C4
:101A00008093CA018091E9029091EA02059719F446
:101A100081E08093E602619684E0CE31D80709F038
:101A20002FCFDF91CF911F910F91FF90EF90DF901B
:101A3000CF90BF90AF909F908F907F906F905F906E
:101A40004F903F902F9008954F925F926F927F92A8
:101A50008F929F92AF92BF92CF92DF92EF92FF92BE
:101A60000F931F93CF93DF93CCE1D3E001E010E01D
:101A70008881882309F4C6C08090ED029090EE0220
:101A8000A090EF02B090F002C501B4010E94E121E4
:101A90002B013C01C980DA80EB80FC8020E030E043
:101AA00040E450E4C701B6010E94601F0E94E1219A
:101AB0009B01AC01C301B2010E94CC1F87FFA2C0F1
:101AC00020E030E040EA50E4C501B4010E94601F0C
:101AD0000E94E1214B015C01C701B6010E94E12196
:101AE0009B01AC01C501B4010E946F2118160CF0D6
:101AF00089C08090460290904702A0904802B09022
:101B00004902C501B4010E94E1212B013C01CD80B5
:101B1000DE80EF80F88420E030E040E050E4C70150
:101B2000B6010E94601F0E94E1219B01AC01C3012C
:101B3000B2010E94CC1F87FF65C020E030E040E882
:101B400050E4C501B4010E94601F0E94E1214B01D5
:101B50005C01C701B6010E94E1219B01AC01C501F6
:101B6000B4010E946F2118160CF04CC08091E50260
:101B700081110AC08091440290914502019790938F
:101B800045028093440209C08091F4029091F502CD
:101B900001969093F5028093F40280914402909113
:101BA0004502892B31F41093F9020093F8020E9448
:101BB000FB0A8091E7029091E80201979093E80276
:101BC0008093E7028091040290910502A0910602A1
:101BD000B091070289839A83AB83BC838091000212
:101BE00090910102A0910202B09103028D839E8325
:101BF000AF83B88718820E942B0402969093B90194
:101C00008093B801619683E0C137D80709F030CFDF
:101C1000DF91CF911F910F91FF90EF90DF90CF90C8
:101C2000BF90AF909F908F907F906F905F904F90FC
:101C300008954F925F926F927F928F929F92AF9290
:101C4000BF92CF92DF92EF92FF928091A6038823FA
:101C500009F496C08090ED029090EE02A090EF0201
:101C6000B090F002C501B4010E94E1212B013C01BA
:101C7000C090A703D090A803E090A903F090AA0316
:101C800020E030E040E450E4C701B6010E94601F4C
:101C90000E94E1219B01AC01C301B2010E94CC1F53
:101CA00087FF6EC020E030E040EA50E4C501B40197
:101CB0000E94601F0E94E1214B015C01C701B60137
:101CC0000E94E1219B01AC01C501B4010E946F217A
:101CD00018160CF055C08090460290904702A090D4
:101CE0004802B0904902C501B4010E94E1212B01D4
:101CF0003C01C090AB03D090AC03E090AD03F090FA
:101D0000AE0320E030E040E050E4C701B6010E949D
:101D1000601F0E94E1219B01AC01C301B2010E943E
:101D2000CC1F87FF2DC020E030E040E850E4C50123
:101D3000B4010E94601F0E94E1214B015C01C701B8
:101D4000B6010E94E1219B01AC01C501B4010E94D2
:101D50006F211816ACF41092A60381E08093E5027F
:101D60000E948C090E942B04059690937B0180931E
:101D70007A010E942B040A96909365018093640176
:101D8000FF90EF90DF90CF90BF90AF909F908F909B
:101D90007F906F905F904F9008958F929F92AF9237
:101DA000BF92CF92DF92EF92FF92CF93DF93809119
:101DB000E602882309F4A5C0C090ED02D090EE029F
:101DC000E090EF02F090F002C701B6010E94E1211D
:101DD0004B015C01C091BB03D091BC03BE016C5FA1
:101DE0007F4F072E000C880B990B0E9480200E94C9
:101DF000E1219B01AC01C501B4010E94CC1F87FF0A
:101E000080C020E030E040EA50E4C701B6010E9403
:101E1000601F0E94E1216B017C01BE01DD0F880B78
:101E2000990B0E9480200E94E1219B01AC01C70117
:101E3000B6010E946F2118160CF063C0C0904602D4
:101E4000D0904702E0904802F0904902C701B601E5
:101E50000E94E1214B015C01C0910803D09109036C
:101E6000BE016C5F7F4F072E000C880B990B0E9400
:101E700080200E94E1219B01AC01C501B4010E94B8
:101E8000CC1F87FF3EC020E030E040E850E4C701AF
:101E9000B6010E94601F0E94E1216B017C01BE011E
:101EA000DD0F880B990B0E9480200E94E1219B018D
:101EB000AC01C701B6010E946F21181614F580917C
:101EC000F30281110CC00E94BB098091F402909131
:101ED000F50201969093F5028093F40212C081E01E
:101EE00090E09093F9028093F802DF91CF91FF90F8
:101EF000EF90DF90CF90BF90AF909F908F900C9419
:101F0000FB0ADF91CF91FF90EF90DF90CF90BF90D1
:101F1000AF909F908F900895CF92DF92EF92FF92B3
:101F2000199B2AC0C090ED02D090EE02E090EF0223
:101F3000F090F00220E030E0A901C701B6010E9454
:101F40006F211816CCF420E030E040E85FE3C701D1
:101F5000B6010E945F1F6093ED027093EE028093C2
:101F6000EF029093F0028091A0039091A10301975A
:101F70009093A1038093A003489B2BC0C090ED02D7
:101F8000D090EE02E090EF02F090F00220E030E01E
:101F90004EE952E4C701B6010E94CC1F87FF19C069
:101FA00020E030E040E85FE3C701B6010E94601F17
:101FB0006093ED027093EE028093EF029093F00233
:101FC0008091A0039091A10301969093A103809327
:101FD000A003499B2BC0C0904602D0904702E090DE
:101FE0004802F090490220E030E040E151E4C701AE
:101FF000B6010E946F211816CCF420E030E040E8D2
:102000005FE3C701B6010E945F1F609346027093B1
:102010004702809348029093490280910A0390916D
:102020000B03019790930B0380930A031F9B2BC014
:10203000C0904602D0904702E0904802F0904902DA
:1020400020E030E040E352E4C701B6010E94CC1F1B
:1020500087FF19C020E030E040E85FE3C701B60128
:102060000E94601F6093460270934702809348026B
:102070009093490280910A0390910B0301969093EB
:102080000B0380930A03FF90EF90DF90CF900895A9
:10209000CF92DF92EF92FF920E942223BC01990F10
:1020A000880B990B0E94802020ED3FE049E450E42A
:1020B0000E9474219B01AC010E94601F20E03EEF52
:1020C0004FEF56E40E94D61F6B017C010E94D11F86
:1020D00060930E0370930F0380931003909311038A
:1020E000C701B6010E94052260931803709319037B
:1020F00080931A0390931B03FF90EF90DF90CF9093
:1021000008954F925F926F927F928F929F92AF92BB
:10211000BF92CF92DF92EF92FF92CF93DF9300D0E6
:1021200000D000D0CDB7DEB7409004025090050239
:102130006090060270900702C0900E03D0900F03CB
:10214000E0901003F0901103A7019601C301B201C2
:102150000E94601F0E94E1210E9448207E836D83BF
:102160008091180390911903A0911A03B0911B0359
:1021700089839A83AB83BC83209100023091010252
:102180004091020250910302BC01CD010E94601FE8
:102190004B015C010E94E1210E944820AD81BE817B
:1021A000109719F0A035B10579F4F7FAF094F7F823
:1021B000F094C0920E03D0920F03E0921003F092BD
:1021C000110381E090E002C080E090E06930710589
:1021D00019F06D32710571F489819A81AB81BC81EE
:1021E000B0588093180390931903A0931A03B093E7
:1021F0001B031EC0892BE1F4A301920160910E0321
:1022000070910F0380911003909111030E94601F41
:102210006093040270930502809306029093070274
:102220008092000290920102A0920202B0920302F8
:1022300026960FB6F894DEBF0FBECDBFDF91CF91CB
:10224000FF90EF90DF90CF90BF90AF909F908F90D6
:102250007F906F905F904F9008954F925F926F9232
:102260007F928F929F92AF92BF92CF92DF92EF9226
:10227000FF92CF93DF9300D000D0CDB7DEB7809030
:10228000ED029090EE02A090EF02B090F002C50136
:10229000B4010E94E1212B013C01C0900402D090C6
:1022A0000502E0900602F090070220E030E040E8EE
:1022B00050E4C701B6010E94601F0E94E1219B010A
:1022C000AC01C301B2010E94CC1F87FFE1C020E036
:1022D00030E040EA50E4C501B4010E94601F0E9452
:1022E000E1214B015C01C701B6010E94E1219B0184
:1022F000AC01C501B4010E946F2118160CF0C8C0D2
:102300008090460290904702A0904802B090490207
:10231000C501B4010E94E1212B013C01C0900002E3
:10232000D0900102E0900202F090030220E030E041
:1023300040E850E4C701B6010E94601F0E94E121FD
:1023400069837A838B839C8320E030E040E850E40B
:10235000C501B4010E94601F0E94E1214B015C0194
:10236000C701B6010E94E1216B017C0129813A81FC
:102370004B815C81C301B2010E94CC1F87FF88C0E2
:10238000A7019601C501B4010E946F2118160CF037
:102390007FC060910A0270910B02072E000C880B1F
:1023A000990B0E9480206093040270930502809331
:1023B0000602909307026091080270910902072EAD
:1023C000000C880B990B0E94802060930002709390
:1023D000010280930202909303028091E502811131
:1023E0004DC06091F1027091F202072E000C880B33
:1023F000990B0E9480206093ED027093EE0280930F
:10240000EF029093F00260914A0270914B02072E06
:10241000000C880B990B0E948020609346027093F9
:102420004702809348029093490280914402909120
:1024300045020197909345028093440280914402A3
:1024400090914502892B21F581E090E09093F9026B
:102450008093F8020F900F900F900F90DF91CF9123
:10246000FF90EF90DF90CF90BF90AF909F908F90B4
:102470007F906F905F904F900C94FB0A8091F402D4
:102480009091F50201969093F5028093F402D6CFD5
:102490000F900F900F900F90DF91CF91FF90EF90E2
:1024A000DF90CF90BF90AF909F908F907F906F9074
:1024B0005F904F900895CF92DF92EF92FF920E942B
:1024C0005C15882309F48AC00E9439158737910565
:1024D000E1F4C0904602D0904702E0904802F090AC
:1024E000490220E030E040E151E4C701B6010E941A
:1024F0006F2118160CF072C020E030E040E85FE376
:10250000C701B6010E945F1F3BC081369105D9F417
:10251000C090ED02D090EE02E090EF02F090F00259
:1025200020E030E0A901C701B6010E946F21181612
:102530000CF054C020E030E040E85FE3C701B60192
:102540000E945F1F43C08337910519F5C090460272
:10255000D0904702E0904802F090490220E030E03D
:1025600040E352E4C701B6010E94CC1F87FF36C08A
:1025700020E030E040E85FE3C701B6010E94601F41
:1025800060934602709347028093480290934902F9
:1025900025C08436910511F5C090ED02D090EE0271
:1025A000E090EF02F090F00220E030E04EE952E4DB
:1025B000C701B6010E94CC1F87FF10C020E030E0A9
:1025C00040E85FE3C701B6010E94601F6093ED021F
:1025D0007093EE028093EF029093F002FF90EF90E1
:1025E000DF90CF90089581E00E9424199093C20358
:1025F0008093C10380E00E94241990931703809375
:1026000016036091C1037091C203072E000C880B62
:10261000990B0E94802020E030E84FEF53E40E94A5
:102620005F1F20E030E040E151EC0E94742120E087
:1026300030E040E05BE30E94742120E030E040E2C3
:1026400051E40E94601F0E9448207093070360932A
:1026500006036091C1037091C203072E000C880B22
:10266000990B0E94802020E030E040E151E40E947C
:10267000742120E030E04FEF53E40E94D61F20E0A9
:1026800030E040E85FE30E94601F0E9448207093A2
:1026900003036093020308950E944D1980E880931C
:1026A000610081E0809361008FE30E94991B0E948A
:1026B0001D150E9436158823E1F30E94D0060E9462
:1026C00048100E94A9090E94B2090E94860B0E942C
:1026D0009B020E94AD020E94C4027894869885985D
:1026E00051982198509827982098229A239A0E94CE
:1026F00020198091F302811108C081E090E090934D
:102700004F0280934E020C94270608958091E902AF
:102710009091EA0205971CF081E08093E60208950B
:10272000DF92EF92FF920F931F93CF93DF93CDB77A
:10273000DEB764970FB6F894DEBF0FBECDBFD82EBC
:10274000162F5F934F933F932F938AEA92E09F93C4
:102750008F931F9284E18F93CE0101967C019F930A
:102760008F930E945C24612F70E0202FA7018D2D94
:1027700090E00E94561B0FB6F894DEBF0FBECDBF8F
:1027800064960FB6F894DEBF0FBECDBFDF91CF9138
:102790001F910F91FF90EF90DF900895DF92EF92DD
:1027A000FF920F931F93CF93DF93CDB7DEB764975C
:1027B0000FB6F894DEBF0FBECDBF082F162FD22E56
:1027C0005F934F938DEA92E09F938F931F9284E1E2
:1027D0008F93CE0101967C019F938F930E945C247E
:1027E000612F70E02D2DA701802F90E00E94561BD5
:1027F0000FB6F894DEBF0FBECDBF64960FB6F89447
:10280000DEBF0FBECDBFDF91CF911F910F91FF9023
:10281000EF90DF900895DF92EF92FF920F931F9356
:10282000CF93DF93CDB7DEB7A0970FB6F894DEBF96
:102830000FBECDBF082F162FD22E5F934F9380EB84
:1028400092E09F938F931F9280E28F93CE01019627
:102850007C019F938F930E945C24612F70E02D2D4B
:10286000A701802F90E00E94561B0FB6F894DEBFA0
:102870000FBECDBFA0960FB6F894DEBF0FBECDBF82
:10288000DF91CF911F910F91FF90EF90DF9008950E
:10289000CF93DF93CDB7DEB79E01215F3F4F4D85CC
:1028A0005E856B857C8589859A850E948C2421E0D4
:1028B00049855A856F8178858D819E810E94561B3E
:1028C000DF91CF9108950F93CF93DF93CDB7DEB70C
:1028D000C055D1090FB6F894DEBF0FBECDBF0E9420
:1028E0002B042091CF023091D0029F938F933F937E
:1028F0002F938091F5028F938091F4028F938091B2
:1029000045028F93809144028F9380914D028F9363
:1029100080914C028F9383EB92E09F938F931F9251
:1029200080E58F93CE0101969F938F931F921F9204
:102930001F921F920E94481401E028E030E044E515
:1029400050E068E070E080E090E00E948E190FB6E1
:10295000F894DEBF0FBECDBFC05BDF4F0FB6F8945B
:10296000DEBF0FBECDBFDF91CF910F9108950E94C2
:102970004D198091E502811103C00E944B0902C0EC
:102980000E9477090E941F090E94930B0E94C50BA9
:102990000E9495070E9463140E946D0B0E94F70B22
:1029A0000C943A190E94B71480919A0390919B035A
:1029B0000E9427230E9461060E9486130E94CD0E6A
:1029C0000E948C0F0E942D110E94270C0E94240D42
:1029D0000E94190E8091F6029091F702892B51F412
:1029E0000E94C0050E94DC050E94F8050E941206A4
:1029F0000E9481100E945B120E94370B0C94F3120C
:102A00000E944C130E94D2142FE788E391E02150DA
:102A100080409040E1F700C00000F4CFFC0101903D
:102A20000020E9F73197BF01681B790B0C94E8157A
:102A30008091E80080FFFCCF089581E08093D7006B
:102A400080EA8093D80082E189BD09B400FEFDCF01
:102A500080E98093D8001092E0001092FD0210925D
:102A6000FA028CE08093E200789408958091FD0250
:102A700008959FB7F8948091FD02882369F083E060
:102A80008093E9002BE68091E80085FD09C082FF74
:102A900003C02093E800F7CF9FBF8FEF9FEF08950B
:102AA0008091F1002091E80025FD03C02BE62093E2
:102AB000E8009FBF90E008952FB7F8948091FD0241
:102AC000811102C080E010C083E08093E900809112
:102AD000F200811109C09091E80092FFF3CF95FDBB
:102AE000F1CF9BE69093E8002FBF08958091FD02FF
:102AF000882371F08FB7F89493E09093E9002BE668
:102B00009091E80095FF03C02093E800F9CF8FBFB4
:102B100008959091FD02992371F09FB7F89424E0F5
:102B20002093E9002091FB02222349F02091E80044
:102B300025FD03C09FBF8FEF08951092FB022091E7
:102B4000E400275E34E04091E80045FD12C09FBFDD
:102B50009091E400291304C081E08093FB02EBCF45
:102B60009091FD02992339F39FB7F8943093E900CF
:102B7000EACF8093F1008091E80085FD03C08AE3ED
:102B80008093E80085E08093FC029FBF80E0089579
:102B90009091FD029923D1F09FB7F89424E02093FF
:102BA000E9002091E80025FD02C09FBF0FC080937F
:102BB000F1008091E80085FD03C08AE38093E8007E
:102BC00085E08093FC029FBF80E008958FEF089519
:102BD0000F931F93CF93DF93DC01CB012091FD0274
:102BE000222371F02FB7F89434E03093E90030914C
:102BF000FB02332349F03091E80035FD03C02FBFBD
:102C00008FEF43C11092FB02C4E0D0E41AE305E069
:102C1000009709F439C13091E400375E4091E80033
:102C200045FD12C02FBF2091E400321304C081E0A3
:102C30008093FB02E5CF2091FD02222309F32FB7F9
:102C4000F894C093E900EACF3091F200ED2FE31B36
:102C50004E2F50E08417950708F4E82F8E1B91093A
:102C60004E2F50E04134510508F001C1FA01EA5AF3
:102C7000FF4F0C9485223C913093F10011963C91CA
:102C80003093F10011963C913093F10011963C91F4
:102C90003093F10011963C913093F10011963C91E4
:102CA0003093F10011963C913093F10011963C91D4
:102CB0003093F10011963C913093F10011963C91C4
:102CC0003093F10011963C913093F10011963C91B4
:102CD0003093F10011963C913093F10011963C91A4
:102CE0003093F10011963C913093F10011963C9194
:102CF0003093F10011963C913093F10011963C9184
:102D00003093F10011963C913093F10011963C9173
:102D10003093F10011963C913093F10011963C9163
:102D20003093F10011963C913093F10011963C9153
:102D30003093F10011963C913093F10011963C9143
:102D40003093F10011963C913093F10011963C9133
:102D50003093F10011963C913093F10011963C9123
:102D60003093F10011963C913093F10011963C9113
:102D70003093F10011963C913093F10011963C9103
:102D80003093F10011963C913093F10011963C91F3
:102D90003093F10011963C913093F10011963C91E3
:102DA0003093F10011963C913093F10011963C91D3
:102DB0003093F10011963C913093F10011963C91C3
:102DC0003093F10011963C913093F10011963C91B3
:102DD0003093F10011963C913093F10011963C91A3
:102DE0003093F10011963C913093F10011963C9193
:102DF0003093F10011963C913093F10011963C9183
:102E00003093F10011963C913093F10011963C9172
:102E10003093F10011963C913093F10011963C9162
:102E20003093F10011963C913093F10011963C9152
:102E30003093F10011963C913093F10011963C9142
:102E40003093F10011963C913093F10011963C9132
:102E50003093F10011963C913093F10011963C9122
:102E60003093F10011963C913093F10011963C9112
:102E70003093F10011963091E80035FF1093E8008F
:102E80000093FC022FBFC4CE80E0DF91CF911F9151
:102E90000F9108958FB7F8949091FC02992341F017
:102EA00094E09093E9009AE39093E8001092FC027A
:102EB0008FBF08956091500270915102809152022B
:102EC0009091530208958091540208958091550283
:102ED00008958091560208958091FA0208959FB74F
:102EE000F8942091FD02222339F022E02093E9009A
:102EF0002091E80025FD03C09FBF8FEF089521EAD0
:102F00002093F10020E22093F1001092F100109242
:102F1000F1001092F1001092F10021E02093F100F5
:102F20001092F1008093F1008AE38093E8009FBF44
:102F300080E008951F920F920FB60F9211248F9385
:102F40009F938091E1001092E10083FF11C01092E5
:102F5000E90091E09093EB001092EC0092E19093E5
:102F6000ED0098E09093F0001092FD021092FA02AA
:102F700082FF13C08091FD02882379F08091FC02CA
:102F8000882359F081508093FC02811106C084E0AF
:102F90008093E9008AE38093E8009F918F910F90DE
:102FA0000FBE0F901F9018951F920F920FB60F92A1
:102FB0001124FF920F931F932F933F934F935F938F
:102FC0006F937F938F939F93AF93BF93CF93DF9331
:102FD000EF93FF931092E9008091E80083FF17C1FF
:102FE000F090F1008091F1000091F1009091F100DA
:102FF00010E0192BC091F1009091F100D0E0D92B95
:103000002091F1006091F10092EF9093E8008630FA
:1030100009F049C08EE492E048E752E0FC01A59136
:10302000B4910A171B07D9F4FC013296A591B4910B
:10303000CA17DB07A1F4FC01349645915491FC01B9
:103040003696849130E0362B2F3F310519F010F081
:103050002FEF30E0281708F4822F3EEF0CC00796C0
:1030600048175907D9F6D3C0490F511D891B309312
:10307000E8008823A9F09091E800292F2570D9F362
:1030800092FDC8C0982F813108F090E1FA01292FF4
:10309000222351F364916093F10021503196F8CFCF
:1030A000903149F3B7C0853049F48EEF8093E80042
:1030B0000E94181500680093E300ACC0893059F5F0
:1030C000F110A5C00093FD021092FA021092FC02CA
:1030D0008EEF8093E80041E08DE093E04093E900BB
:1030E0009C012F5F3F4FFC0154915093EB005523FF
:1030F00059F0F90124912093EC009C012D5F3F4F82
:103100003196E491E093ED004F5F453011F0C90135
:10311000E5CF8EE177C0883051F4F0E8FF1277C038
:103120000E9418158091FD028093F10049C0813200
:1031300081F481EAF8126BC00E941815E0E5F2E014
:1031400087E592E021912093F1008E179F07D1F738
:1031500037C08032A9F491E2F91259C08091E80099
:1031600082FFFCCFE0E5F2E087E592E02091F100FC
:1031700021938E179F07D1F78BEF8093E80020C033
:10318000823241F4E1E2FE1242C00093FA020E9450
:10319000181516C0811118C00E941815F2E8FF1208
:1031A0000AC0C093E9008091EB0085FB882780F975
:1031B0001092E90001C080E08093F1001092F100CC
:1031C0008EEF8093E80026C0982F9D7F9130F9F410
:1031D00092E0F9121CC0012BD1F4CF779FEF9C0F26
:1031E0009430A8F49EEF9093E800C093E9008330F8
:1031F00071F089E18093EB0081E090E001C0880FDD
:10320000CA95EAF78093EA001092EA0003C081E2CF
:103210008093EB00FF91EF91DF91CF91BF91AF9140
:103220009F918F917F916F915F914F913F912F91DE
:103230001F910F91FF900F900FBE0F901F90189548
:1032400087E880937A000895982F9F7190649093F7
:103250007C00807280937B0080917A0080648093F0
:103260007A0080917A0086FDFCCF80917800909161
:1032700079000895CF93DF9360E080E00E94D61B31
:10328000CEE1D4E0699181E00E947B1B86E0C631EB
:10329000D807C1F7DF91CF910895EEE1F4E01192E4
:1032A00086E0E631F807D9F7089584359105A8F549
:1032B0006033710590F59B0173E0359527957A95FC
:1032C000E1F76770452BA1F044E5429FF001439F71
:1032D000F00D11248E0F9F1FFC01E25EFB4F81E079
:1032E00090E001C0880F6A95EAF79081892B14C09D
:1032F00044E5429FF001439FF00D11248E0F9F1F64
:10330000FC01E25EFB4F81E090E001C0880F6A950E
:10331000EAF7809590818923808308952F923F92C8
:103320004F925F926F927F928F929F92AF92BF92D5
:10333000CF92DF92EF92FF920F931F93CF93DF9381
:10334000CDB7DEB72E970FB6F894DEBF0FBECDBF58
:103350001C013B012A013A8329838417950771F5E3
:103360007C836B8329813A81621673069CF48B817E
:103370009C81281739070CF41AC1A8016B817C8144
:10338000C1010E9455192B813C812F5F3F4F3C8327
:103390002B83E8CFAB81BC8129813A81A217B30787
:1033A0000CF405C1A8016B817C81C1010E945519F3
:1033B0008B819C8101979C838B83D4CF89819A8157
:1033C0006817790751F53A822982241435049CF450
:1033D000A981BA814A165B060CF4E9C0A801B301C1
:1033E00089819A810E94551929813A812F5F3F4F27
:1033F0003A832983EACF29813A81241535050CF4D3
:10340000D6C0A801B30189819A810E945519A9816A
:10341000BA811197BA83A983D8CF4215530554F4C2
:10342000872D69807A8069838A83922D832D1A0182
:10343000492E582EB20162197309072E000C880B11
:10344000990B0E9480206F83788789879A8769818A
:103450007A8166197709072E000C880B990B0E9458
:1034600080204B015C012F81388549855A850E9457
:10347000D61F6B837C838D839E8320E030E0A9017F
:103480000E946F2187FF09C08B819C81AD81BE8125
:10349000B0588B839C83AD83BE83C12CD12C760125
:1034A00020E030E0A9016F81788589859A850E94A6
:1034B0006F2118160CF077C0421453040CF477C037
:1034C000A801B301C1010E9455192B813C814D8196
:1034D0005E81C701B6010E94601F6B017C0120E084
:1034E00030E040E05FE30E946F2187FF10C020E0E2
:1034F00030E0A9016F81788589859A850E946F21C6
:1035000018160CF04CC09FEF291A390AC9CF20E0D9
:1035100030E0A901C501B4010E946F211816CCF555
:1035200029813A812615370514F3A801B301C10199
:103530000E945519A1E0B0E0BC87AB8720E030E0E5
:10354000A901C501B4010E946F21181614F01C8650
:103550001B8621E030E03E872D8720E030E0A90186
:10356000C501B4010E94CC1F87FD02C01E861D86C6
:103570008B859C85AD85BE858A1B9B0B680E791E4D
:1035800020E030E040E85FE3C701B6010E945F1F22
:10359000A4CF89819A81681679063CF6A8CFA1E06C
:1035A0002A1A31087DCF241435040CF089CF2E96C9
:1035B0000FB6F894DEBF0FBECDBFDF91CF911F9144
:1035C0000F91FF90EF90DF90CF90BF90AF909F90C2
:1035D0008F907F906F905F904F903F902F900895C5
:1035E0002F923F924F925F926F927F928F929F9213
:1035F000AF92BF92CF92DF92EF92FF920F931F9301
:10360000CF93DF936C014B01190185E0489F2001A6
:103610001124E12CF12C80EA481A510866246394A5
:10362000712CF201EE0DFF1DE95EFC4FE4912114B7
:10363000310409F4E09500E010E0CE2FD0E056010F
:10364000AE0CBF1CA301002E02C0440F551F0A94EC
:10365000E2F74C235D23002E02C0559547950A944E
:10366000E2F7B401600F711FC5010E9455190F5F89
:103670001F4F0830110531F78FEFE81AF80A85E07F
:10368000E816F10471F6DF91CF911F910F91FF9031
:10369000EF90DF90CF90BF90AF909F908F907F90F2
:1036A0006F905F904F903F902F900895CF92DF9250
:1036B000EF92FF920F931F93CF93DF937B018A01C9
:1036C0006901D82FC0E0F801EC0FF11D40814423BF
:1036D00049F09601B7018D2F90E00E94F01ADB5F50
:1036E000CF5FF1CFDF91CF911F910F91FF90EF90BE
:1036F000DF90CF90089525B12F7D30E2839FC001E8
:103700001124822B85B95F9887E090E070E08F9854
:103710009B01082E02C0359527950A94E2F720FFF9
:1037200002C02E9A01C02E988F9A019780F75F9A57
:103730000895CF93C82F579A249A259A269A879A44
:103740002C985F9A2C9A61E280E00E947B1B6C2F80
:10375000606880E00E947B1B64E080E00E947B1B2D
:1037600063E180E00E947B1B6CE080E00E947B1B99
:1037700060E280E00E947B1B6CE080E00E947B1B8B
:1037800060E480E00E947B1B60E880E0CF910C94B5
:103790007B1BCF93DF93C8EFD1E060E081E00E9414
:1037A0007B1B2197D1F7DF91CF910895CF93C82F3D
:1037B000606480E00E947B1B6C2F606880E0CF918A
:1037C0000C947B1BA0E1B0E0E8EEFBE10C948B22B3
:1037D0007C011B016A01FC0117821682838181FF33
:1037E00044C39E012F5F3F4F3901F7019381F101DF
:1037F00093FD859193FF81911F01882309F431C3C3
:10380000853239F493FD859193FF81911F018532B3
:1038100039F4B70190E00E94202456016501E5CFFC
:1038200010E0512C912CFFE1F915D8F08B3279F092
:1038300038F4803279F08332A1F4F92DF0612EC092
:103840008D3261F0803369F4292D21602DC0392D2E
:103850003260932E892D8460982E2AC0E92DE8606D
:1038600015C097FC2DC020ED280F2A3088F496FE55
:1038700006C03AE0139F200D1124122F19C08AE0D0
:10388000589E200D1124522EE92DE0629E2E10C06C
:103890008E3231F496FCE5C2F92DF0649F2E08C0FB
:1038A0008C3621F4292D2068922E02C0883641F4EE
:1038B000F10193FD859193FF81911F018111B3CF98
:1038C0009BEB980F933020F4992D9061805E07C098
:1038D0009BE9980F933008F066C1992D9F7E96FF63
:1038E00016E09F73992E853619F49064992E08C0BE
:1038F000863621F4392F3068932E02C011111150F1
:1039000097FE07C01C3350F444244394410E27E033
:103910000BC0183038F027E017E005C027E09CE323
:10392000492E02C0212F412C560184E0A80EB11C63
:10393000F6016081718182819381042DA3010E942F
:1039400032236C01F981FC87F0FF02C0F3FF06C04F
:1039500091FC06C092FE06C000E205C00DE203C065
:103960000BE201C000E08C858C7019F001115AC285
:103970009BC297FE10C04C0CFC85F4FF04C08A81EA
:10398000813309F44A94141474F528E0241578F569
:1039900088E0482E2CC096FC2AC0812F90E08C1520
:1039A0009D059CF03CEFC3163FEFD30674F0892DC4
:1039B0008068982E0AC0E2E0F0E0EC0FFD1FE10FF6
:1039C000F11D8081803319F411501111F4CF97FE4D
:1039D0000EC044244394410E812F90E0C816D906AE
:1039E0002CF41C1904C04424439401C010E097FE39
:1039F00006C01C141D0434F4C601019605C085E000
:103A000090E002C081E090E001110196112331F0B5
:103A1000212F30E02F5F3F4F820F931F252D30E085
:103A20008217930714F4581A01C0512C892D8970FC
:103A300049F4552039F0B70180E290E00E9420243B
:103A40005A94F7CF002329F0B701802F90E00E940D
:103A5000202493FC09C0552039F0B70180E390E0A1
:103A60000E9420245A94F7CF97FE4CC04601D7FEFF
:103A700002C0812C912CC60188199909F301E80F25
:103A8000F91FFE87ED87960124193109388B2F879E
:103A9000012F10E01195019511093FEF8316930650
:103AA00029F4B7018EE290E00E942024C814D904C2
:103AB0004CF08F8598898815990524F4ED85FE854D
:103AC000818101C080E3F1E08F1A91082D853E8548
:103AD0002F5F3F4F3E872D87801691062CF0B70150
:103AE00090E00E942024D9CFC814D90441F49A81CF
:103AF000963320F4953319F43C8534FF81E3B70104
:103B000090E04EC08A81813319F09C859F7E9C870E
:103B1000B70190E00E942024111105C094FC18C048
:103B200085E690E017C0B7018EE290E00E94202465
:103B30001E5F82E001E0080FF301E80FF11D8081B4
:103B4000B70190E00E942024802F0113F3CFE6CF2D
:103B500085E490E0B7010E942024D7FC06C0C11480
:103B6000D10441F4EC85E4FF05C0D194C194D1089F
:103B70008DE201C08BE2B70190E00E94202480E337
:103B80002AE0C216D1042CF08F5FFAE0CF1AD108D8
:103B9000F7CFB70190E00E942024B701C601C0967C
:103BA0000E94202454C1833631F0833779F0833565
:103BB00009F056C020C0560132E0A30EB11CF60138
:103BC0008081898301E010E0630112C05601F2E0B8
:103BD000AF0EB11CF601C080D18096FE03C0612FEC
:103BE00070E002C06FEF7FEFC6010E9415248C01C8
:103BF000F92DFF7714C0560122E0A20EB11CF60188
:103C0000C080D18096FE03C0612F70E002C06FEFCC
:103C10007FEFC6010E940A248C01F92DF0689F2EC7
:103C2000F3FD1AC0852D90E008171907A8F4B70115
:103C300080E290E00E9420245A94F4CFF60197FC91
:103C4000859197FE81916F01B70190E00E94202439
:103C500051105A94015011090115110579F7F7C057
:103C6000843611F0893661F5560197FE09C024E0CB
:103C7000A20EB11CF60160817181828193810AC01C
:103C8000F2E0AF0EB11CF60160817181072E000CCD
:103C9000880B990BF92DFF769F2E97FF09C0909501
:103CA0008095709561957F4F8F4F9F4FF0689F2E45
:103CB0002AE030E0A3010E94B824C82EC6183FC0F5
:103CC000092D853721F40F7E2AE030E01DC0097FE1
:103CD0008F3691F018F4883559F0C3C0803719F049
:103CE000883711F0BEC0006104FF09C0046007C03E
:103CF00094FE08C0066006C028E030E005C020E160
:103D000030E002C020E132E0560107FF09C084E044
:103D1000A80EB11CF601608171818281938108C077
:103D2000F2E0AF0EB11CF6016081718180E090E09D
:103D3000A3010E94B824C82EC6180F77902E96FEB5
:103D40000BC0092D0E7FC11650F494FE0AC092FCE0
:103D500008C0092D0E7E05C0DC2C092D03C0DC2C0B
:103D600001C0D12E04FF0DC0FE01EC0DF11D8081BC
:103D7000803311F4097E09C002FF06C0D394D394A6
:103D800004C0802F867809F0D39403FD11C000FF92
:103D900006C01C2DD51480F4150D1D190DC0D514A9
:103DA00058F4B70180E290E00E942024D394F7CF2A
:103DB000D51410F45D1801C0512C04FF10C0B701D8
:103DC00080E390E00E94202402FF17C001FD03C0A1
:103DD00088E790E002C088E590E0B7010CC0802F32
:103DE000867859F001FF02C08BE201C080E207FD36
:103DF0008DE2B70190E00E942024C11638F4B7018B
:103E000080E390E00E9420241150F7CFCA94F30180
:103E1000EC0DF11D8081B70190E00E942024C110BB
:103E2000F5CF15C0F4E0F51560F584E0581A93FE5F
:103E30001FC0011127C02C8523FF2AC00CE411E00C
:103E4000392D3071932EF8018491811124C05520B1
:103E500009F4E4CCB70180E290E00E9420245A9457
:103E6000F6CFF7018681978126C08FEF9FEF23C0A1
:103E7000B70180E290E00E9420245A945110F8CFBC
:103E8000D8CF512CB701802F90E00E942024D3CFAF
:103E900000E511E0D5CF91108052B70190E00E946B
:103EA00020240F5F1F4FCFCF23E0251510F483E0B0
:103EB000BDCF512CC0CF6096E2E10C94A7225058A0
:103EC000BB27AA270E94771F0C9421210E94E8207B
:103ED00038F00E94EF2020F039F49F3F19F426F4C7
:103EE0000C94E5200EF4E095E7FB0C94DF20E92F1D
:103EF0000E94462158F3BA17620773078407950793
:103F000020F079F4A6F50C9468210EF4E0950B2EC0
:103F1000BA2FA02D0B01B90190010C01CA01A0011B
:103F20001124FF27591B99F0593F50F4503E68F176
:103F30001A16F040A22F232F342F4427585FF3CFB7
:103F4000469537952795A795F0405395C9F77EF488
:103F50001F16BA0B620B730B840BBAF09150A1F0D1
:103F6000FF0FBB1F661F771F881FC2F70EC0BA0F57
:103F7000621F731F841F48F4879577956795B795DF
:103F8000F7959E3F08F0B0CF9395880F08F09927DA
:103F9000EE0F9795879508950E94BB2008F481E065
:103FA00008950E94F820E3950C9432210E94EA1FA4
:103FB0000C9421210E94EF2058F00E94E82040F04C
:103FC00029F45F3F29F00C94DF2051110C946921F2
:103FD0000C94E5200E94462168F39923B1F3552300
:103FE00091F3951B550BBB27AA276217730784070C
:103FF00038F09F5F5F4F220F331F441FAA1FA9F3A2
:1040000035D00E2E3AF0E0E832D091505040E6958F
:10401000001CCAF72BD0FE2F29D0660F771F881FF0
:10402000BB1F261737074807AB07B0E809F0BB0BE3
:10403000802DBF01FF2793585F4F3AF09E3F5105F7
:1040400078F00C94DF200C9469215F3FE4F3983EF4
:10405000D4F3869577956795B795F7959F5FC9F7E0
:10406000880F911D9695879597F90895E1E0660F61
:10407000771F881FBB1F621773078407BA0720F0DA
:10408000621B730B840BBA0BEE1F88F7E095089543
:104090000E944F206894B1110C94692108950E94E8
:1040A0004E2188F09F5798F0B92F9927B751B0F05B
:1040B000E1F0660F771F881F991F1AF0BA95C9F7AC
:1040C00014C0B13091F00E946821B1E008950C94C1
:1040D0006821672F782F8827B85F39F0B93FCCF374
:1040E000869577956795B395D9F73EF49095809529
:1040F000709561957F4F8F4F9F4F0895E89409C049
:1041000097FB3EF490958095709561957F4F8F4F0A
:104110009F4F9923A9F0F92F96E9BB279395F69520
:10412000879577956795B795F111F8CFFAF4BB0F9E
:1041300011F460FF1BC06F5F7F4F8F4F9F4F16C002
:10414000882311F096E911C0772321F09EE8872F8C
:10415000762F05C0662371F096E8862F70E060E048
:104160002AF09A95660F771F881FDAF7880F9695C1
:10417000879597F90895990F0008550FAA0BE0E865
:10418000FEEF16161706E807F907C0F01216130619
:10419000E407F50798F0621B730B840B950B39F459
:1041A0000A2661F0232B242B252B21F408950A26BF
:1041B00009F4A140A6958FEF811D811D089597F9FF
:1041C0009F6780E870E060E008959FEF80EC0895BD
:1041D00000240A94161617061806090608950024E6
:1041E0000A94121613061406050608950C94E52089
:1041F0000E944E21D8F3E894E0E0BB279F57F0F0EF
:104200002AED3FE049EC06C0EE0FBB0F661F771F9B
:10421000881F28F0B23A62077307840728F0B25A61
:10422000620B730B840BE3959A9572F7803830F428
:104230009A95BB0F661F771F881FD2F790480C9482
:104240002A22092E0394000C11F4882352F0BB0F8C
:1042500040F4BF2B11F460FF04C06F5F7F4F8F4F9E
:104260009F4F0895EF93E0FF07C0A2EA2AED3FE0D9
:1042700049EC5FEB0E94771F0E9421210F9003946D
:1042800001FC9058EEE2F1E00C94362257FD905874
:10429000440F551F59F05F3F71F04795880F97FB0A
:1042A000991F61F09F3F79F08795089512161306C4
:1042B0001406551FF2CF4695F1DF08C016161706F3
:1042C0001806991FF1CF8695710561050894089528
:1042D000E894BB2766277727CB0197F908950E94BA
:1042E000BB2008F48FEF08950E9487210C942121B0
:1042F0000E94E82038F00E94EF2020F0952311F072
:104300000C94DF200C94E52011240C9469210E9468
:10431000462170F3959FC1F3950F50E0551F629FA2
:10432000F001729FBB27F00DB11D639FAA27F00D0E
:10433000B11DAA1F649F6627B00DA11D661F829F35
:104340002227B00DA11D621F739FB00DA11D621F1A
:10435000839FA00D611D221F749F3327A00D611D37
:10436000231F849F600D211D822F762F6A2F112419
:104370009F5750409AF0F1F088234AF0EE0FFF1F4C
:10438000BB1F661F771F881F91505040A9F79E3FA3
:10439000510580F00C94DF200C9469215F3FE4F319
:1043A000983ED4F3869577956795B795F795E795F9
:1043B0009F5FC1F7FE2B880F911D9695879597F902
:1043C00008950E944E21E8F09E37E8F09639B8F43F
:1043D0009E3848F4672F782F8827985FF9CF869505
:1043E0007795679593959539D0F3B62FB1706B0F8C
:1043F000711D811D20F487957795679593950C9491
:104400000D220C9428220C9469219F930E94F8207D
:104410000F9007FCEE5F0C943221882371F4772310
:1044200021F09850872B762F07C0662311F4992727
:104430000DC09051862B70E060E02AF09A95660FCF
:10444000771F881FDAF7880F9695879597F9089553
:104450009F3F31F0915020F4879577956795B795F8
:10446000880F911D9695879597F908959F938F933F
:104470007F936F93FF93EF939B01AC010E94742194
:10448000EF91FF910E944A222F913F914F915F91AE
:104490000C947421DF93CF931F930F93FF92EF92AD
:1044A000DF927B018C01689406C0DA2EEF010E9436
:1044B0008721FE01E894A59125913591459155916B
:1044C000A6F3EF010E94771FFE019701A801DA947D
:1044D00069F7DF90EF90FF900F911F91CF91DF91DF
:1044E000089597FB072E16F4009407D077FD09D0A6
:1044F0000E94C22207FC05D03EF4909581959F4F03
:104500000895709561957F4F0895EE0FFF1F0590F8
:10451000F491E02D09942F923F924F925F926F9207
:104520007F928F929F92AF92BF92CF92DF92EF9243
:10453000FF920F931F93CF93DF93CDB7DEB7CA1BC4
:10454000DB0B0FB6F894DEBF0FBECDBF09942A88EF
:10455000398848885F846E847D848C849B84AA8497
:10456000B984C884DF80EE80FD800C811B81AA8124
:10457000B981CE0FD11D0FB6F894DEBF0FBECDBFEF
:10458000ED010895AA1BBB1B51E107C0AA1FBB1F69
:10459000A617B70710F0A61BB70B881F991F5A95CF
:1045A000A9F780959095BC01CD0108958F929F92B7
:1045B000AF92BF92CF92DF92EF92FF92CF93DF93B1
:1045C000EC01688179818A819B8161157105810582
:1045D000910521F464E279ED8BE597E02DE133EF6D
:1045E00041E050E00E94162549015A019B01AC01AF
:1045F000A7EAB1E40E9435256B017C01ACEEB4EF73
:10460000A50194010E944325DC01CB018C0D9D1D69
:10461000AE1DBF1DB7FF03C00197A109B048888335
:104620009983AA83BB839F77DF91CF91FF90EF900F
:10463000DF90CF90BF90AF909F908F9008950E9491
:10464000D622089587E592E00E94D6220895A0E040
:10465000B0E08093570290935802A0935902B09310
:104660005A020895283008F027E03327DA01990F1D
:10467000311D87FD916000966105710539F4326046
:104680002E5F3D9330E32A95E1F708959F3F30F088
:1046900080387105610509F03C5F3C5F3D939130C6
:1046A00008F08068911DDF93CF931F930F93FF92C3
:1046B000EF92192F987F9695E92F96959695E90F89
:1046C000FF27E255FE4F99273327EE24FF24A70149
:1046D000E70105900894079428F4360FE71EF81EAA
:1046E000491F511D660F771F881F991F0694A1F758
:1046F0000590079428F4E70EF81E491F561FC11DA8
:10470000770F881F991F661F0694A1F705900794DD
:1047100028F4F80E491F561FC71FD11D880F991F77
:10472000661F771F0694A1F70590079420F4490FA0
:10473000561FC71FD81F990F661F771F881F069423
:10474000A9F784911095177041F0D695C7955795A4
:104750004795F794E7941A95C1F7E4E5F1E068947A
:104760001590159135916591959105907FE273951E
:10477000E118F10A430B560BC90BD009C0F7E10C45
:10478000F11E431F561FC91FD01D7EF4703311F454
:104790008A95E6CFE894015030F0080F0AF400271C
:1047A000021708F4202F2395022F7A3328F079E39B
:1047B0007D932A95E9F710C07D932A9589F6069492
:1047C00097956795379517951794E118F10A430B5C
:1047D000560BC90BD00998F023957E9173957A33C7
:1047E00008F070E37C932013B8F77E9170617D939D
:1047F00030F0839571E37D9370E32A95E1F71124FE
:10480000EF90FF900F911F91CF91DF91992787FD36
:1048100090950895FC010590615070400110D8F703
:10482000809590958E0F9F1F0895FC0161507040F8
:1048300001900110D8F7809590958E0F9F1F0895D5
:104840000F931F93CF93DF93FB01238121FD03C0BF
:104850008FEF9FEF2CC022FF16C046815781248125
:1048600035814217530744F4A081B1819D012F5F28
:104870003F4F318320838C93268137812F5F3F4FB9
:104880003783268314C08B01EC01FB010084F18582
:10489000E02D0995892BE1F6D80116968D919C9112
:1048A0001797019617969C938E931697CE01DF91DA
:1048B000CF911F910F910895AEE0B0E0E2E6F4E2EF
:1048C0000C9499220D891E898F89988D26E02C835E
:1048D0001A83098397FF02C080E090E801979E83C6
:1048E0008D83AE01455E5F4F698D7A8DCE01019655
:1048F0000E94E21B4D815E8157FD0AC02F813885E1
:10490000421753070CF49A01F801E20FF31F1082CB
:104910002E96E4E00C94B522AEE0B0E0E2E9F4E2D9
:104920000C9499228C01FA0186E08C831A83098306
:1049300077FF02C060E070E8CB0101979E838D8312
:10494000A901BF01CE0101960E94E21B4D815E814B
:1049500057FD0AC02F813885421753070CF49A017E
:10496000F801E20FF31F10822E96E4E00C94B522BA
:10497000FA01AA27283051F1203181F1E8946F9390
:104980006E7F6E5F7F4F8F4F9F4FAF4FB1E03ED036
:10499000B4E03CD0670F781F891F9A1FA11D680FD4
:1049A000791F8A1F911DA11D6A0F711D811D911D07
:1049B000A11D20D009F468943F912AE0269F11247C
:1049C0003019305D3193DEF6CF010895462F4770E0
:1049D000405D4193B3E00FD0C9F7F6CF462F4F703B
:1049E000405D4A3318F0495D31FD4052419302D099
:1049F000A9F7EACFB4E0A69597958795779567953F
:104A0000BA95C9F700976105710508959B01AC013E
:104A10000A2E06945795479537952795BA95C9F765
:104A2000620F731F841F951FA01D0895052E97FB0D
:104A30001EF400940E942D2557FD07D00E944825A2
:104A400007FC03D04EF40C942D25509540953095DD
:104A500021953F4F4F4F5F4F0895909580957095EA
:104A600061957F4F8F4F9F4F08950E946A25A59FA4
:104A7000900DB49F900DA49F800D911D1124089559
:104A8000B7FF0C9435250E943525821B930B0895A2
:104A9000A1E21A2EAA1BBB1BFD010DC0AA1FBB1F42
:104AA000EE1FFF1FA217B307E407F50720F0A21BB4
:104AB000B30BE40BF50B661F771F881F991F1A9421
:104AC00069F760957095809590959B01AC01BD014B
:104AD000CF010895A29FB001B39FC001A39F700DA5
:104AE000811D1124911DB29F700D811D1124911DF6
:064AF0000895F894FFCFC9
:104AF60000000000000000000100010001000100AC
:104B06000100010002000200020002000200020091
:104B16000200030003000300030003000400040076
:104B2600040001000200040005000000010002006C
:104B36000400050006000000010002000300040056
:104B46000500060001000200030004000500020043
:104B5600030004000A00000000000100010001003B
:104B66000000020000000100020005000000000035
:104B7600010001000200020002000300030003001E
:104B86000300010002000000030000000200030011
:104B96000000010002000300000001000100010006
:104BA60001000000010002000300000000000100F7
:104BB60001000000010000000100020000000000EA
:104BC60001000100010001000100020002000200D4
:104BD60003000300030000000400000001000200BF
:104BE60003000400000002000400010002000300AC
:104BF60000001C4200009E4227004F0000000000FB
:104C06000000000001000100010001000200020096
:104C1600020003000300030000000100030004007B
:104C2600000001000300040001000200030001006F
:104C36000200030005000000104109000100010008
:104C460000E10000000008010000005479726F6E58
:104C560065204E6F6C6173636F006E313032333294
:104C660031313700546F6D20616E64204A6572726F
:104C7600790047414D45204F5645520052696768B5
:104C8600742073776974636800746F20737461723B
:104C960074206F766572203A280025660025640028
:104CA6002575004C252E64204850252E642053255A
:0E4CB6002E326420252E32643A252E32640000
:00000001FF
