:100000000C943B020C9458020C9458020C94580225
:100010000C9458020C9458020C9458020C945802F8
:100020000C9458020C9458020C94B5140C94F014CF
:100030000C9458020C9458020C9458020C945802D8
:100040000C9458020C9458020C9458020C945802C8
:100050000C9426030C9458020C9458020C949A02A7
:100060000C9458020C9458020C9458020C945802A8
:100070000C9458020C9458020C9458020C94580298
:100080000C9458020C9458020C9458020C94C5031A
:100090000C9458020C9458020C9458020C94580278
:1000A0000C9458020C9458020C94580205A84CCD9C
:1000B000B2D44EB93836A9020C50B9918688083CA2
:1000C000A6AAAA2ABE000000803F00010000FE0090
:1000D000120002000010014300030000530104015C
:1000E000030904570114020309046D0116030309EF
:1000F0000485010C0001C112018036018136120114
:10010000000202000010C0167A040001010203017F
:1001100009024300020100C032090400000102028A
:100120000100052400100105240101010424020638
:1001300005240600010705820310004009040100A0
:10014000020A0000000705030240000007058402C0
:1001500040000004030904140359006F0075007285
:100160000020004E0061006D006500000016035580
:1001700000530042002000530065007200690061D6
:10018000006C0000000C03310032003300340035F5
:10019000000000000000000000005F0000000700F9
:1001A0000700147F147F14242A7F2A122313086463
:1001B0006236495522500005030000001C22410010
:1001C0000041221C0014083E081408083E080800DC
:1001D0005030000008080808080060600000201087
:1001E0000804023E5149453E00427F4000426151B1
:1001F00049462141454B311814127F10274545458A
:10020000393C4A49493001710905033649494936A3
:10021000064949291E0036360000005636000008FF
:100220001422410014141414140041221408020171
:10023000510906324979413E7E1111117E7F4949AB
:1002400049363E414141227F4141221C7F49494973
:10025000417F090909013E4149497A7F0808087F21
:1002600000417F41002040413F017F081422417F2F
:10027000404040407F020C027F7F0408107F3E41D7
:1002800041413E7F090909063E4151215E7F09191E
:100290002946464949493101017F01013F4040401B
:1002A0003F1F2040201F3F4038403F631408146325
:1002B00007087008076151494543007F414100022A
:1002C000040810200041417F000402010204404064
:1002D000404040000102040020545454787F4844B8
:1002E00044383844444420384444487F38545454B3
:1002F00018087E0901020C5252523E7F080404780D
:1003000000447D40002040443D007F102844000010
:10031000417F40007C041804787C08040478384449
:100320004444387C14141408081414187C7C080401
:1003300004084854545420043F4440203C4040208A
:100340007C1C2040201C3C4030403C442810284469
:100350000C5050503C4464544C440008364100005A
:10036000007F000000413608001008081008784699
:100370004146786E616E00696E660000407A10F347
:100380005A00A0724E18090010A5D4E80000E876C3
:1003900048170000E40B54020000CA9A3B0000001A
:1003A000E1F505000080969800000040420F000033
:1003B00000A08601000000102700000000E80300F4
:1003C0000000006400000000000A000000000001BE
:1003D00000000000002C76D888DC674F0823DFC1BE
:1003E000DFAE59E1B1B796E5E3E453C63AE6519979
:1003F0007696E8E6C28426EB898C9B62ED407C6FA2
:10040000FCEFBC9C9F40F2BAA56FA5F490055A2A58
:10041000F75C936B6CF9676DC11BFCE0E40D47FE64
:10042000F520E6B500D0ED902E0300943577050059
:1004300080841E080000204E0A000000C80C3333E0
:1004400033330F986E12831141EF8D2114893BE6EF
:100450005516CFFEE6DB18D1844B381BF77C1D9078
:100460001DA4BBE424203284725E228100C9F124E1
:10047000ECA1E53D270011241FBECFEFDAE0DEBF7F
:10048000CDBF12E0A0E0B1E0E8EFF3E402C00590D8
:100490000D92AE3CB107D9F716E0AEECB2E001C068
:1004A0001D92A631B107E1F70E942E140C94FA2197
:1004B0000C94000085B5877F85BD85B5846085BDBA
:1004C00085B58D7F85BD85B5816085BDEEE6F0E0A3
:1004D0008081816080830895E1E8F0E08081877FFA
:1004E000808380818F7E808380818B7F80838081E9
:1004F0008260808380818E7F8083EFE6F0E0808160
:10050000816080830895E1E9F0E08081877F8083C6
:1005100080818F7E808380818460808380818D7FD5
:10052000808380818E7F8083E1E7F0E0808181603D
:10053000808308951F920F920FB60F9211248F930C
:100540009F938091D0029091D102892B09F58091DF
:10055000730190917401892BD9F48091E3029091F9
:10056000E40201969093E4028093E3028091F30207
:100570009091F40201969093F4028093F30280919B
:100580009A0390919B03019690939B0380939A0307
:100590008091E202882319F02B9A2A9A02C02B98A4
:1005A0002A988091F902880F8093F9028091F902CC
:1005B0008F738093F9029091F9028FB1829586959D
:1005C00086958170892B8093F9029091F9028FB101
:1005D000829586958170892B8093F9029091F9021A
:1005E00089B186958170892B8093F9029091F902E7
:1005F00083B186958170892B8093F9029091F902DD
:1006000089B18295869586958170892B8093F902B0
:100610009091F90283B18295869586958170892B98
:100620008093F9028091F9028F3319F481E080936D
:1006300077038091F902882311F4109277039F9138
:100640008F910F900FBE0F901F9018951F920F92D1
:100650000FB60F9211242F933F934F935F938F9375
:100660009F93AF93BF938091D0029091D102892B39
:1006700099F48091E9029091EA02A091EB02B09185
:10068000EC020196A11DB11D8093E9029093EA024C
:10069000A093EB02B093EC028091C1039091C2034E
:1006A0008F5F91407CF12091E9023091EA02409104
:1006B000EB025091EC028091060390910703AA2768
:1006C00097FDA095BA2F82179307A407B507D0F41A
:1006D00080917803909179030196909379038093A8
:1006E00078038091A4039091A50301969093A503AC
:1006F0008093A4031092E9021092EA021092EB0296
:100700001092EC028091C1039091C2038F5F9140DF
:100710007CF52091E9023091EA024091EB02509180
:10072000EC028091020390910303AA2797FDA09504
:10073000BA2F82179307A407B507D0F480917803E6
:100740009091790301979093790380937803809136
:10075000A4039091A50301979093A5038093A4030C
:100760001092E9021092EA021092EB021092EC024F
:10077000BF91AF919F918F915F914F913F912F9139
:100780000F900FBE0F901F9018951F920F920FB6EB
:100790000F9211248F939F93AF93BF938091ED029B
:1007A0009091EE02A091EF02B091F0020196A11D8E
:1007B000B11D8093ED029093EE02A093EF02B093EF
:1007C000F002BF91AF919F918F910F900FBE0F904C
:1007D0001F901895AF92BF92CF92DF92EF92FF9247
:1007E0000F931F936091E3027091E402E6B48827AF
:1007F00077FD8095982F0E94681D20E030E040E84A
:1008000053E40E94551E5B016C01FF240027F7FC96
:100810000095102FC801B7010E94681D9B01AC0113
:10082000C601B5010E94621C20E030E040E854E4BB
:100830000E94551E20E034E244EF5AE40E94CD1C91
:100840000E94351D7093F2026093F1026091F102F3
:100850007091F202882777FD8095982F0E94681D7D
:1008600020E030E040E752E40E94511E88238CF0E3
:100870001092E4021092E3028091F7029091F80244
:1008800001969093F8028093F7021092F202109270
:10089000F1022091F1023091F202C9011F910F91F2
:1008A000FF90EF90DF90CF90BF90AF900895ECE174
:1008B000F3E020E030E08081882371F5F90184E0E5
:1008C000EE0FFF1F8A95E1F7E20FF31FE45EFC4F86
:1008D0008091BB019091BC01A091BD01B091BE017E
:1008E00081839283A383B4838091BF019091C001DF
:1008F000A091C101B091C20185839683A783B0877F
:1009000081E080838091DF029091E00201969093D4
:10091000E0028093DF0208952F5F3F4F71962530EC
:10092000310549F60895CF93DF930E94EA03EC0165
:100930008091090290910A02C817D90769F4809141
:10094000DF029091E002059714F40E945704239669
:10095000D0930A02C0930902DF91CF9108950E94BB
:10096000EA039C01809147029091480228173907B9
:1009700089F58091D402882369F18091A6038823A8
:1009800019F58091BB019091BC01A091BD01B0917E
:10099000BE018093A7039093A803A093A903B093EB
:1009A000AA038091BF019091C001A091C101B091B3
:1009B000C2018093AB039093AC03A093AD03B093BB
:1009C000AE0381E08093A6032B5F3F4F3093480234
:1009D0002093470208950E94EA039C0180915D02E2
:1009E00090915E022817390761F48091E202882312
:1009F00041F01092E202265F3F4F30935E02209357
:100A00005D0208958FB182958695877080FF22C020
:100A10008091D0029091D102892BE1F480917301F1
:100A2000909174010197B1F08091CE029091CF0224
:100A3000019781F080ED97E028EC30E0F9013197E3
:100A4000F1F70197D9F781E090E09093D10280937C
:100A5000D00208958FB182958695877080FF0DC072
:100A600080ED97E028EC30E0F9013197F1F701973C
:100A7000D9F71092D1021092D002089582E190E04D
:100A800090937B0380937A038FE090E090937D03B3
:100A900080937C038DE090E090937F0380937E03AE
:100AA00049E150E0509381034093800350938303C6
:100AB0004093820383E290E09093850380938403C4
:100AC00050938703409386038DE290E090938903CF
:100AD0008093880390938B0380938A032AE030E00D
:100AE00030938D0320938C038CE390E090938F03DD
:100AF00080938E0330939103209390038AE390E0D8
:100B0000909393038093920350939503409394039F
:100B100088E490E090939703809396038EE190E0B1
:100B2000909399038093980308950F931F93609176
:100B3000D5027091D602882777FD8095982F0E9464
:100B4000681D6093D7027093D8028093D902909366
:100B5000DA026091770170917801882777FD80959E
:100B6000982F0E94681D6093790170937A01809399
:100B70007B0190937C0105E010E010937E010093CF
:100B80007D011092D3021092D2026091B701709150
:100B9000B801882777FD8095982F0E94681D609383
:100BA000BB017093BC018093BD019093BE01609125
:100BB000B9017091BA01882777FD8095982F0E941E
:100BC000681D6093BF017093C0018093C101909331
:100BD000C2011092F8021092F7021092F2021092E3
:100BE000F1021092E4021092E3021092D1021092EC
:100BF000D0021092A5031092A403109279031092D0
:100C000078031092DE021092DD021092BA03109265
:100C1000B9031092DC021092DB021092E0021092F3
:100C2000DF0282E090E09093F8018093F70183E087
:100C300090E090930A028093090210934802009377
:100C400047021092E6021092E5021092E80210921A
:100C5000E7021092C9031092DA031092EB0310928C
:100C6000FC0310920D0410921C0310922D0310929D
:100C70003E0310924F03109260031092A6030E944D
:100C80003E051092E1021092E2021092D40281E03D
:100C900090E090937601809375011F910F910895D4
:100CA0008CE490E090937B0380937A0386E490E059
:100CB00090937D0380937C0389E490E090937F037D
:100CC00080937E0380E590E090938103809380037E
:100CD0002AE330E030938303209382038AE190E09B
:100CE0009093850380938403309387032093860336
:100CF00084E290E090938903809388038CE090E0F5
:100D000090938B0380938A0320E230E030938D032D
:100D100020938C038BE190E090938F0380938E035C
:100D200030939103209390038EE290E0909393038D
:100D3000809392038DE090E09093950380939403C9
:100D40008CE390E0909397038093960382E190E088
:100D50009093990380939803089581E08093D4023F
:100D60001092D1021092D0021092DE021092DD0297
:100D70001092BA031092B9031092DC021092DB02B7
:100D80001092E0021092DF020E94EA030296909312
:100D9000F8018093F7010E94EA03039690930A02F8
:100DA000809309020E94EA0305969093480280937B
:100DB00047021092E6021092E5021092E8021092A9
:100DC000E7021092A5031092A403109279031092E7
:100DD00078031092C9031092DA031092EB03109279
:100DE000FC0310920D0410921C0310922D0310921C
:100DF0003E0310924F03109260031092A6030E94CC
:100E000050061092E2021092E1026091B7017091D7
:100E1000B801882777FD8095982F0E94681D609300
:100E2000D7027093D8028093D9029093DA0260912E
:100E3000B9017091BA01882777FD8095982F0E949B
:100E4000681D6093790170937A0180937B01909380
:100E50007C016091D5027091D6026B5F7F4F88272D
:100E600077FD8095982F0E94681D6093BB01709359
:100E7000BC018093BD019093BE0160917701709198
:100E800078016B5F7F4F882777FD8095982F0E94B0
:100E9000681D6093BF017093C0018093C10190935E
:100EA000C2010895EF92FF920F931F9383B186952D
:100EB00080FF2BC0E090D702F090D8020091D902B9
:100EC0001091DA02C801B70120E030E040E050E0C4
:100ED0000E94511E1816CCF4C801B70120E030E082
:100EE00040E85FE30E94611C6093D7027093D802D0
:100EF0008093D9029093DA028091A0039091A1038C
:100F000001979093A1038093A003489B2BC0E0908E
:100F1000D702F090D8020091D9021091DA02C801EC
:100F2000B70120E030E04EE952E40E94C61C88235D
:100F3000CCF4C801B70120E030E040E85FE30E9454
:100F4000621C6093D7027093D8028093D902909369
:100F5000DA028091A0039091A10301969093A103DE
:100F60008093A00389B1869580FF2BC0E090790122
:100F7000F0907A0100917B0110917C01C801B701CA
:100F800020E030E040E151E40E94511E1816CCF4FC
:100F9000C801B70120E030E040E85FE30E94611C37
:100FA0006093790170937A0180937B0190937C0127
:100FB00080910A0390910B03019790930B03809308
:100FC0000A031F9B2BC0E0907901F0907A010091F9
:100FD0007B0110917C01C801B70120E030E040E3C3
:100FE00052E40E94C61C8823CCF4C801B70120E05B
:100FF00030E040E85FE30E94621C609379017093E7
:101000007A0180937B0190937C0180910A039091F7
:101010000B03019690930B0380930A031F910F918A
:10102000FF90EF9008950F931F93DF93CF93CDB769
:10103000DEB70B851C85FE017196C8016D857E8526
:101040004F8558899F010E9416218F819885698557
:101050007A85A80121E00E945D18CF91DF911F9150
:101060000F91089581E00E9442149093C2038093EF
:10107000C10380E00E9442149093170380931603EB
:101080006091C1037091C203882777FD8095982FE6
:101090000E94681D20E030E84FEF53E40E94611C7D
:1010A00020E030E040E151EC0E94551E20E030E0AD
:1010B00040E05BE30E94551E20E030E040E251E456
:1010C0000E94621C0E94351D709307036093060303
:1010D0006091C1037091C203882777FD8095982F96
:1010E0000E94681D20E030E040E151E40E94551E5E
:1010F00020E030E04FEF53E40E94CD1C20E030E0D0
:1011000040E85FE30E94621C0E94351D7093030358
:10111000609302030895EF92FF920F931F93CF9372
:10112000DF930E949A14882309F48AC00E947514E0
:10113000EC0187379105D9F4E0907901F0907A01BC
:1011400000917B0110917C01C801B70120E030E0E3
:1011500040E151E40E94511E18164CF4C801B70139
:1011600020E030E040E85FE30E94611C3BC0C136F4
:10117000D105D9F4E090D702F090D8020091D902BD
:101180001091DA02C801B70120E030E040E050E001
:101190000E94511E18167CF5C801B70120E030E00E
:1011A00040E85FE30E94611C43C0C337D10519F5D5
:1011B000E0907901F0907A0100917B0110917C011F
:1011C000C801B70120E030E040E352E40E94C61CB1
:1011D0008823B4F5C801B70120E030E040E85FE3C0
:1011E0000E94621C6093790170937A0180937B0165
:1011F00090937C0125C0C436D10511F5E090D7024B
:10120000F090D8020091D9021091DA02C801B7011A
:1012100020E030E04EE952E40E94C61C882384F4AA
:10122000C801B70120E030E040E85FE30E94621CA3
:101230006093D7027093D8028093D9029093DA0218
:10124000DF91CF911F910F91FF90EF9008952F9212
:101250003F924F925F926F927F928F929F92AF9246
:10126000BF92CF92DF92EF92FF920F931F93DF9383
:10127000CF9300D000D0CDB7DEB72090BB01309027
:10128000BC014090BD015090BE0160900E03709073
:101290000F038090100390901103C201B101A401CB
:1012A00093010E94621C0E94B81E0E94351D7B01A2
:1012B0008C017C836B83A0901803B0901903C090BD
:1012C0001A03D0901B03C601B5012091BF013091D4
:1012D000C0014091C1015091C2010E94621C162FB1
:1012E000072F89839A830E94B81E0E94351DE1143E
:1012F000F10439F0C7018035910519F080E090E0E4
:101300000DC0D401C301B05880930E0390930F0316
:10131000A0931003B093110381E090E06930710550
:1013200019F06D32710561F4D601C501B058809392
:10133000180390931903A0931A03B0931B0324C0BE
:10134000892B11F5C201B10120910E0330910F03D9
:1013500040911003509111030E94621C6093BB01E5
:101360007093BC018093BD019093BE01212F302F5B
:1013700049815A81C901DA018093BF019093C0016C
:10138000A093C101B093C2010F900F900F900F90E6
:10139000CF91DF911F910F91FF90EF90DF90CF9051
:1013A000BF90AF909F908F907F906F905F904F9085
:1013B0003F902F9008952F923F924F925F926F929D
:1013C0007F928F929F92AF92BF92CF92DF92EF92D5
:1013D000FF920F931F938091A603882309F4A5C061
:1013E0002090D7023090D8024090D9025090DA0273
:1013F000C201B1010E94B81E7B018C01A090A7031D
:10140000B090A803C090A903D090AA03C601B5016B
:1014100020E030E040E450E40E94621C0E94B81ECC
:101420009B01AC01C801B7010E94C61C88230CF0C7
:101430007CC0C201B10120E030E040EA50E40E94EB
:10144000621C0E94B81E7B018C01C601B5010E947E
:10145000B81E9B01AC01C801B7010E94511E1816AD
:101460000CF063C0A0907901B0907A01C0907B012C
:10147000D0907C01C601B5010E94B81E7B018C0191
:101480006090AB037090AC038090AD039090AE037E
:10149000C401B30120E030E040E050E40E94621C4F
:1014A0000E94B81E9B01AC01C801B7010E94C61C76
:1014B0008823DCF5C601B50120E030E040E850E4C7
:1014C0000E94621C0E94B81E7B018C01C401B30102
:1014D0000E94B81E9B01AC01C801B7010E94511EB9
:1014E00018161CF51092A60381E08093E202C20157
:1014F000B1010E94351D7093A1036093A003C60142
:10150000B5010E94351D70930B0360930A030E947E
:10151000EA03059690934802809347020E94EA03EB
:101520000A9690935E0280935D021F910F91FF9047
:10153000EF90DF90CF90BF90AF909F908F907F9073
:101540006F905F904F903F902F9008955F926F92B1
:101550007F928F929F92AF92BF92CF92DF92EF9243
:10156000FF920F931F93CF93DF93C9ECD3E05524E1
:1015700053948881882309F4CCC0A090D702B090FE
:10158000D802C090D902D090DA02C601B5010E94FB
:10159000B81E7B018C0169807A808B809C80C4019D
:1015A000B30120E030E040E050E40E94621C0E9461
:1015B000B81E9B01AC01C801B7010E94C61C88235C
:1015C0000CF0A7C0C601B50120E030E040EA50E4CD
:1015D0000E94621C0E94B81E7B018C01C401B301F1
:1015E0000E94B81E9B01AC01C801B7010E94511EA8
:1015F00018160CF08EC0A0907901B0907A01C090BE
:101600007B01D0907C01C601B5010E94B81E7B0110
:101610008C016D807E808F809884C401B30120E0AE
:1016200030E040E050E40E94621C0E94B81E9B0122
:10163000AC01C801B7010E94C61C88230CF069C028
:10164000C601B50120E030E040E850E40E94621C91
:101650000E94B81E7B018C01C401B3010E94B81E18
:101660009B01AC01C801B7010E94511E18160CF075
:1016700050C08091D2029091D30201969093D302F0
:101680008093D2028091DB029091DC0201979093CB
:10169000DC028093DB028091DD029091DE020196F4
:1016A0009093DE028093DD020E94EC1F64E570E0FF
:1016B0000E943D1FAA2797FDA095BA2FBC01CD011E
:1016C0000E94681D69837A838B839C830E94EC1F30
:1016D0006BE270E00E943D1F4096AA2797FDA095FF
:1016E000BA2FBC01CD010E94681D6D837E838F835C
:1016F000988718820E94EA0302969093F8018093DB
:10170000F7018091DD029091DE02059711F450926D
:10171000E102619684E0CE31D80709F02ACFDF914B
:10172000CF911F910F91FF90EF90DF90CF90BF90DE
:10173000AF909F908F907F906F905F9008950F93E0
:101740001F93CF93DF93E9ECF3E0C0E0D0E080811A
:101750008823F1F50E94EC1F8E0124E0000F111F79
:101760002A95E1F70C0F1D1F07531C4F64E570E02D
:101770000E943D1F0597AA2797FDA095BA2FBC018F
:10178000CD010E94681DF801618372838383948375
:101790000E94EC1F6AE270E00E943D1F0696AA2795
:1017A00097FDA095BA2FBC01CD010E94681DF801DC
:1017B000658376838783908781E080838091DB02D5
:1017C0009091DC0201969093DC028093DB0206C0CC
:1017D00021967196C530D10509F0B9CFDF91CF912F
:1017E0001F910F910895CF93DF930E94EA03EC01BC
:1017F0008091F7019091F801C817D90769F4809199
:10180000DB029091DC02059714F40E949F0B229654
:10181000D093F801C093F701DF91CF910895EF9233
:10182000FF920F931F930E94EC1FAA2797FDA0958C
:10183000BA2FBC01CD010E94681D20ED3FE049E4B4
:1018400050E40E94551E9B01AC010E94621C20E0E6
:101850003EEF4FEF56E40E94CD1C7B018C01C80186
:101860000E94CA1C60930E0370930F0380931003B1
:1018700090931103B701C8010E94D81E609318030A
:101880007093190380931A0390931B031F910F9178
:10189000FF90EF900895CF93DF93C8ECD0E032C073
:1018A0000E946E1680E090E06AE070E049E051E04E
:1018B00021E00E945D1880E090E064E170E043E187
:1018C00051E021E00E945D1880E090E06EE170E060
:1018D00040E251E021E00E945D187D9B11C00E9412
:1018E000950588EE93E0FE013197F1F70197D9F75E
:1018F0001092CF021092CE021092D1021092D0021A
:101900000E945B168091CE029091CF02019741F226
:10191000DF91CF9108952F923F924F925F926F92F5
:101920007F928F929F92AF92BF92CF92DF92EF926F
:10193000FF920F931F93DF93CF9300D000D0CDB7CA
:10194000DEB7A090D702B090D802C090D902D09054
:10195000DA02C601B5010E94B81E7B018C016090BD
:10196000BB017090BC018090BD019090BE01C4018C
:10197000B30120E030E040E850E40E94621C0E9485
:10198000B81E9B01AC01C801B7010E94C61C882388
:101990000CF0D0C0C601B50120E030E040EA50E4D0
:1019A0000E94621C0E94B81E7B018C01C401B3011D
:1019B0000E94B81E9B01AC01C801B7010E94511ED4
:1019C00018160CF0B7C0E0907901F0907A01009100
:1019D0007B0110917C01C801B7010E94B81E1B0158
:1019E0002C01A090BF01B090C001C090C101D09067
:1019F000C201C601B50120E030E040E850E40E9499
:101A0000621C0E94B81E3B014C01C801B70120E0D6
:101A100030E040E850E40E94621C0E94B81E6983D6
:101A20007A838B839C83C601B5010E94B81E7B011B
:101A30008C01C201B101A40193010E94C61C88233C
:101A40000CF078C069817A818B819C81A801970113
:101A50000E94511E18160CF06DC06091B701709174
:101A6000B801882777FD8095982F0E94681D6093A4
:101A7000BB017093BC018093BD019093BE01609146
:101A8000B9017091BA01882777FD8095982F0E943F
:101A9000681D6093BF017093C0018093C101909352
:101AA000C2018091E202882371F56091D5027091A4
:101AB000D602882777FD8095982F0E94681D609335
:101AC000D7027093D8028093D9029093DA02609182
:101AD000770170917801882777FD8095982F0E9473
:101AE000681D6093790170937A0180937B019093D4
:101AF0007C0180917D0190917E01019790937E0100
:101B000080937D0109C08091D2029091D302019609
:101B10009093D3028093D20280917D0190917E01B7
:101B2000892B41F481E090E09093CF028093CE0224
:101B30000E944B0C0F900F900F900F90CF91DF9160
:101B40001F910F91FF90EF90DF90CF90BF90AF90DB
:101B50009F908F907F906F905F904F903F902F90CD
:101B60000895AF92BF92CF92DF92EF92FF920F93C0
:101B70001F93CF93DF938091E102882309F49EC0E5
:101B8000A090D702B090D802C090D902D090DA02CB
:101B9000C601B5010E94B81E7B018C01C091BB0338
:101BA000D091BC032496BE01882777FD8095982F9D
:101BB00024970E94681D0E94B81E9B01AC01C801B9
:101BC000B7010E94C61C88230CF078C0C601B5017D
:101BD00020E030E040EA50E40E94621C0E94B81EFF
:101BE0007B018C01BE01882777FD8095982F0E948C
:101BF000681D0E94B81E9B01AC01C801B7010E947C
:101C0000511E18160CF05AC0A0907901B0907A01BC
:101C1000C0907B01D0907C01C601B5010E94B81E26
:101C20007B018C01C0910803D09109032496BE0169
:101C3000882777FD8095982F24970E94681D0E9421
:101C4000B81E9B01AC01C801B7010E94C61C8823C5
:101C5000ACF5C601B50120E030E040E850E40E9458
:101C6000621C0E94B81E7B018C01BE01882777FD93
:101C70008095982F0E94681D0E94B81E9B01AC01A0
:101C8000C801B7010E94511E1816C4F48091D402F5
:101C9000882361F40E94AD068091D2029091D30214
:101CA00001969093D3028093D20208C081E090E025
:101CB0009093CF028093CE020E944B0CDF91CF9184
:101CC0001F910F91FF90EF90DF90CF90BF90AF905A
:101CD00008954F925F926F927F928F929F92AF92F0
:101CE000BF92CF92DF92EF92FF920F931F93CF9309
:101CF000DF93CCE1D3E031E0432E512C888188235F
:101D000009F4C8C0A090D702B090D802C090D90200
:101D1000D090DA02C601B5010E94B81E7B018C0189
:101D200069807A808B809C80C401B30120E030E020
:101D300040E450E40E94621C0E94B81E9B01AC016A
:101D4000C801B7010E94C61C88230CF0A3C0C601BD
:101D5000B50120E030E040EA50E40E94621C0E949D
:101D6000B81E7B018C01C401B3010E94B81E9B0107
:101D7000AC01C801B7010E94511E18160CF08AC0B0
:101D8000A0907901B0907A01C0907B01D0907C0145
:101D9000C601B5010E94B81E7B018C016D807E805A
:101DA0008F809884C401B30120E030E040E050E42B
:101DB0000E94621C0E94B81E9B01AC01C801B701C1
:101DC0000E94C61C88230CF065C0C601B50120E046
:101DD00030E040E850E40E94621C0E94B81E7B0183
:101DE0008C01C401B3010E94B81E9B01AC01C80163
:101DF000B7010E94511E18160CF04CC08091E202EF
:101E0000882351F480917D0190917E0101979093F8
:101E10007E0180937D0109C08091D2029091D3020E
:101E200001969093D3028093D20280917D0190918C
:101E30007E01892B31F45092CF024092CE020E9453
:101E40004B0C8091DF029091E00201979093E002A9
:101E50008093DF028091BB019091BC01A091BD01F4
:101E6000B091BE0189839A83AB83BC838091BF010B
:101E70009091C001A091C101B091C2018D839E8358
:101E8000AF83B88718820E94EA03029690930A02F1
:101E900080930902619683E0C137D80709F02ECFFD
:101EA000DF91CF911F910F91FF90EF90DF90CF9036
:101EB000BF90AF909F908F907F906F905F904F906A
:101EC00008958FB1829586958695837080FF19C09D
:101ED0008091D4028823A9F480ED97E028EC30E0CB
:101EE000F9013197F1F70197D9F70E94AD0680917A
:101EF000750190917601019690937601809375011A
:101F000008958FB1829586958695837080FF15C060
:101F10008091D402882389F080ED97E028EC30E0AE
:101F2000F9013197F1F70197D9F781E090E09093AB
:101F3000CF028093CE020E944B0C0895CF93DF9383
:101F4000C8ECD0E030C00E946E1680E090E06AE0FD
:101F500070E041E351E021E00E945D1880E090E0F4
:101F600064E170E040E451E021E00E945D1880E00F
:101F700090E06EE170E04AE451E021E00E945D18DB
:101F80007D9B0FC010927401109273011092D102C8
:101F90001092D00288EE93E0FE013197F1F701979D
:101FA000D9F70E945B16809173019091740101979B
:101FB00051F2DF91CF9108950E946E1680E88093D0
:101FC000610081E0809361008FE30E949E180E946F
:101FD00059140E9472148823E1F30E943E050E9466
:101FE0000F0C1092C9031092DA031092EB031092B7
:101FF000FC0310920D0410921C0310922D031092FA
:102000003E0310924F03109260038EE190E0909394
:10201000BC038093BB039093090380930803109241
:10202000E1020E945A020E946C020E94830278948C
:102030008698859851982198509827982098229AA8
:10204000239A0E943E148091D402882341F481E0B7
:1020500090E090937401809373010E949E0F089505
:102060000F93609104037091050340919C0350917C
:102070009D0320917503309176038091A203909186
:10208000A30301E00E94AF166091FE027091FF026F
:102090004091C5035091C603209112033091130360
:1020A00080917103909172030E94AF166091C703F3
:1020B0007091C80340919E0350919F032091730338
:1020C0003091740380911403909115030E94AF1610
:1020D0006091C3037091C4034091B7035091B8035A
:1020E0002091BD033091BE0380910C0390910D03AC
:1020F0000E94AF16EEE1F4E0119284E0E237F807B7
:10210000D9F70F910895CF93DF93A0917A03B091FF
:102110007B0380917803909179039D01281B390BF3
:102120003093A3032093A203E0917C03F0917D03FD
:102130008091A4039091A5039F01281B390B309334
:1021400005032093040360917E0370917F038091C7
:10215000780390917903AB01481B590B50939D0371
:1021600040939C0340918003509181038091A4038C
:102170009091A503EA01C81BD90BCE01D093760339
:10218000C093750321333105B4F09897B0937B0366
:10219000A0937A03B897F0937D03E0937C03685291
:1021A000704070937F0360937E0348525040509379
:1021B000810340938003099724F580917A039091DD
:1021C0007B03899690937B0380937A0380917C03B1
:1021D00090917D03899690937D0380937C038091F9
:1021E0007E0390917F03899690937F0380937E0373
:1021F00080918003909181038996909381038093CD
:102200008003209182033091830380917803909121
:102210007903820F931F909372038093710397FF4A
:1022200006C02C5A3F4F3093830320938203853599
:10223000910554F0809182039091830385559040DD
:10224000909383038093820380918403909185030C
:102250009093FF028093FE022091860330918703C2
:102260008091780390917903820F931F9093C60316
:102270008093C50397FF06C02C5A3F4F30938703C6
:10228000209386038535910554F0809186039091C3
:1022900087038555904090938703809386038091B0
:1022A0008803909189039093130380931203809184
:1022B0008A0390918B0390931503809314032091CC
:1022C0008C0330918D038091A4039091A503820F1C
:1022D000931F9093C8038093C7038930910534F40A
:1022E000295D3F4F30938D0320938C03C1974CF0B1
:1022F00080918C0390918D03889790938D038093A8
:102300008C0380918E0390918F0390939F03809311
:102310009E0320919003309191038091A4039091AA
:10232000A503820F931F90937403809373038930E6
:10233000910534F4295D3F4F30939103209390032E
:10234000C1974CF08091900390919103889790935E
:10235000910380939003A0919203B0919303809195
:102360007803909179038A0F9B1F90930D038093BC
:102370000C03E0919403F09195038091A403909154
:10238000A5039F01281B390B3093C4032093C3037B
:1023900060919603709197038091780390917903EF
:1023A000860F971F9093B8038093B70340919803CB
:1023B000509199038091A4039091A503EA01C81B51
:1023C000D90BCE01D093BE03C093BD032133310599
:1023D000B4F09896B0939303A0939203B897F093B8
:1023E0009503E0939403685D7F4F70939703609328
:1023F000960348525040509399034093980309978D
:1024000024F580919203909193038897909393037E
:102410008093920380919403909195038896909372
:1024200095038093940380919603909197038897E6
:1024300090939703809396038091980390919903CA
:10244000889690939903809398030E943010DF91AF
:10245000CF9108950F93DF93CF93CDB7DEB7C055DB
:10246000D0400FB6F894DEBF0FBECDBF0E94EA0386
:102470004091F7025091F8022DB73EB724513040F9
:102480000FB6F8943EBF0FBE2DBFEDB7FEB7319625
:10249000ADB7BEB712961C921E921197138212828C
:1024A0009E012F5F3F4F3583248320E530E0378343
:1024B000268328E531E0318720872091750130910E
:1024C00076013387228720917D0130917E01358707
:1024D00024872091D2023091D30237872687518BEF
:1024E000408B938B828B0E9413082DB73EB72C5ED6
:1024F0003F4F0FB6F8943EBF0FBE2DBF80E090E077
:1025000068E070E044E550E028E030E001E00E943F
:10251000AF16C05BDF4F0FB6F894DEBF0FBECDBF66
:10252000CF91DF910F9108958F929F92AF92BF92BA
:10253000CF92DF92EF92FF920F931F93CF93DF938F
:102540004C015B016A017901E80100E010E00FC075
:10255000F701819191917F01699179916C0D7D1DB8
:102560008A0D9B1D41E00E9476160F5F1F4F0815D4
:10257000190574F3DF91CF911F910F91FF90EF90A8
:10258000DF90CF90BF90AF909F908F900895EF9283
:10259000FF920F931F938091A603882311F16091FE
:1025A000A7037091A8038091A9039091AA030E94A8
:1025B000351D7B018C016091AB037091AC03809160
:1025C000AD039091AE030E94351D9B01AC0185E0E7
:1025D00090E0B701A90129E432E003E512E00E948E
:1025E00094121F910F91FF90EF900895EF92FF9238
:1025F0000F931F93CF93DF93CCE1D3E0888188239F
:10260000D1F069817A818B819C810E94351D7B018B
:102610008C016D817E818F8198850E94351D9B0183
:10262000AC0184E090E0B701A9012BE032E003E1C6
:1026300012E00E949412619683E0C137D807F1F648
:10264000DF91CF911F910F91FF90EF900895EF923E
:10265000FF920F931F93CF93DF93C9ECD3E0888150
:102660008823D1F069817A818B819C810E94351DFC
:102670007B018C016D817E818F8198850E94351D43
:102680009B01AC0184E090E0B701A90129EF31E0A2
:1026900001E012E00E949412619684E0CE31D807E6
:1026A000F1F6DF91CF911F910F91FF90EF90089578
:1026B0000F931F938091E102882381F060910803BA
:1026C000709109034091BB035091BC038BE090E0F3
:1026D0002BE132E001E312E00E9494121F910F916E
:1026E00008950F931F936091A0037091A1034091EF
:1026F0000A0350910B0389E190E02FE532E001E9F4
:1027000012E00E9494121F910F910895EF92FF9290
:102710000F931F936091D7027091D8028091D902D4
:102720009091DA020E94351D7B018C016091790144
:1027300070917A0180917B0190917C010E94351DFE
:102740009B01AC018EE090E0B701A9012FE731E0D9
:102750000BE911E00E9494121F910F91FF90EF90EE
:102760000895EF92FF920F931F936091BB017091B8
:10277000BC018091BD019091BE010E94351D7B017D
:102780008C016091BF017091C0018091C101909155
:10279000C2010E94351D9B01AC018DE090E0B701A4
:1027A000A90123EC31E00DED11E00E9494121F917C
:1027B0000F91FF90EF9008950E946E168091E202B3
:1027C000882319F40E94861302C00E9471130E948C
:1027D000B1130E9427130E94F6120E9483100E94D8
:1027E0002A120E9458130E94C7120E945B16089575
:1027F0000E94DC1380919A0390919B030E94F11F29
:102800000E9402058091DD029091DE0205971CF086
:1028100081E08093E1020E94B10D0E9452070E9464
:102820008B0C0E94A60A0E94690E0E94DB0980910F
:10283000D0029091D102892B51F40E94F30B0E9497
:1028400093040E94AF040E94EB040E9427090E9497
:102850008B080E94610F0E9432080895CF93DF9386
:102860000E94DC0FC8ECD0E00E94F81384EF91E0E6
:10287000FE013197F1F70197D9F7F6CF87E88093FA
:102880007A000895982F9F71906490937C008072D5
:1028900080937B0080917A00806480937A0080919D
:1028A0007A0086FDFCCF2091780030917900C90133
:1028B000089581E08093D70080EA8093D80082E178
:1028C00089BD09B400FEFDCF80E98093D800109245
:1028D000E0001092FA021092FB028CE08093E2007A
:1028E000789408958091FA0208952FB7F894809112
:1028F000FA02882369F083E08093E9009BE68091E7
:10290000E80085FD09C082FF03C09093E800F7CF7F
:102910002FBF2FEF3FEF0CC09091F1008091E800A6
:1029200085FD03C08BE68093E8002FBF292F30E0A0
:10293000C90108952FB7F8948091FA02882311F401
:1029400090E010C083E08093E9009091F200992319
:1029500049F48091E80082FF05C085FD03C08BE645
:102960008093E8002FBF892F08951F920F920FB612
:102970000F9211248F939F938091E1001092E100B8
:10298000982F83FF11C01092E90081E08093EB0043
:102990001092EC0082E18093ED0088E08093F000DB
:1029A0001092FA021092FB0292FF13C08091FA0279
:1029B000882379F08091FC02882359F0815080931C
:1029C000FC02882331F484E08093E9008AE3809359
:1029D000E8009F918F910F900FBE0F901F90189558
:1029E0001F920F920FB60F9211240F931F932F93E4
:1029F0003F934F935F936F937F938F939F93AF9387
:102A0000BF93EF93FF931092E9008091E80083FF5A
:102A10003CC14091F1003091F1008091F100682FAC
:102A200070E02091F100922F80E0682B792B80914B
:102A3000F100A82FB0E02091F100922F80E0A82BA8
:102A4000B92B1091F1000091F10082EF8093E80022
:102A5000363009F05AC021ED30E0A9014550504010
:102A6000F9013797859194918617970701F5FA0137
:102A7000859194918A179B07D1F49A012E5F3F4F5D
:102A8000F901659174912E5F3F4FF9014491212F17
:102A900030E0902F80E0282B392B2F3F310519F0A3
:102AA00010F02FEF30E0241758F4422F09C0295FAF
:102AB0003F4F495F5F4FF0E02B3F3F0789F6E5C08E
:102AC0005EEF8091E800282F30E0C901857090709A
:102AD000892BB9F322FDDCC0342F413108F030E1FD
:102AE000232FCB0106C0FC010196E491E093F10095
:102AF00021502223C1F7630F711D431B5093E8003F
:102B00004423F9F63031E9F2C3C0353061F48EEF79
:102B10008093E8008091E80080FFFCCF862F8068DA
:102B20008093E300B5C0393051F5442309F0ADC0BE
:102B30006093FA021092FB021092FC028EEF8093D7
:102B4000E80084EF90E021E02093E900FC01019689
:102B5000E491E093EB00EE2369F0AC014F5F5F4F2F
:102B6000FC0184918093EC00CA010196FA01349132
:102B70003093ED002F5F253039F78EE181C038307A
:102B800061F4403809F081C08091E80080FFFCCFFB
:102B90008091FA028093F10050C0313289F4413AB9
:102BA00009F073C08091E80080FFFCCFE3ECF2E015
:102BB00081918093F10082E0EA3CF807C9F73DC0BB
:102BC0003032A1F4413209F060C08091E80082FF08
:102BD000FCCFE3ECF2E08091F100819382E0EA3CEB
:102BE000F807C9F78BEF8093E80027C0323251F421
:102BF000413209F04AC06093FB028091E80080FFF7
:102C0000FCCF1BC03323E9F48091E80080FFFCCFA8
:102C1000423811F080E00DC0A093E9008091EB00F4
:102C200090E025E0969587952A95E1F781701092BE
:102C3000E9008093F1001092F1008EEF8093E8009C
:102C400027C0313011F0333001F54230F1F4672BF9
:102C5000E1F42A2F2F77822F81508430B0F48EEF49
:102C60008093E8002093E900333079F089E1809384
:102C7000EB0081E090E002C0880F991F2A95E2F7EF
:102C80008093EA001092EA0003C081E28093EB0097
:102C9000FF91EF91BF91AF919F918F917F916F9134
:102CA0005F914F913F912F911F910F910F900FBE08
:102CB0000F901F901895CF93DF9360E080E00E9403
:102CC000CE18CEE1D4E0699181E00E94801886E0C0
:102CD000C631D807C1F7DF91CF910895EEE1F4E056
:102CE000119286E0E631F807D9F708958435910509
:102CF000A8F56033710590F59B0153E03595279554
:102D00005A95E1F767704423A1F044E5429FF00132
:102D1000439FF00D11248E0F9F1FFC01E25EFB4FBD
:102D200081E090E001C0880F6A95EAF79081892BD5
:102D300014C044E5429FF001439FF00D11248E0F13
:102D40009F1FFC01E25EFB4F81E090E001C0880F15
:102D50006A95EAF7809590818923808308952F9260
:102D60003F924F925F926F927F928F929F92AF921B
:102D7000BF92CF92DF92EF92FF920F931F93CF9368
:102D8000DF93CDB7DEB72D970FB6F894DEBF0FBE39
:102D9000CDBF9D878C871B013A01290109838417C8
:102DA0009507F1F48B01241435046CF44016510698
:102DB0000CF407C14981B8018C859D850E94761667
:102DC0000F5F1F4FF0CF041515050CF4FAC04981B1
:102DD000B8018C859D850E94761601501109E3CFBC
:102DE00062177307F9F40C851D858C859D85861502
:102DF000970564F4601671060CF4E3C04981B101D3
:102E0000C8010E9476160F5F1F4FEFCF06151705FA
:102E10000CF4D7C04981B101C8010E947616015057
:102E20001109E3CFAC85BD854A175B0754F4832DA8
:102E30001901462E582E9C858D855D874C87692EFD
:102E4000782EB3018C859D85681B790B072E000CAD
:102E5000880B990B0E94681D6E837F8388879987F2
:102E6000B20162197309072E000C880B990B0E949E
:102E7000681D4B015C012E813F81488559850E9468
:102E8000CD1C6A837B838C839D8320E030E0A90185
:102E90000E94511E87FF09C08A819B81AC81BD8140
:102EA000B0588A839B83AC83BD83C12CD12C76011F
:102EB00020E030E0A9016E817F81888599850E949C
:102EC000511E18160CF077C08C859D856816790602
:102ED0000CF477C04981B1018C859D850E947616DE
:102EE0002A813B814C815D81C701B6010E94621C31
:102EF0006B017C0120E030E040E05FE30E94511E66
:102F000087FF12C020E030E0A9016E817F818885B3
:102F100099850E94511E18160CF047C08C859D851E
:102F200001969D878C87C4CF20E030E0A901C501C0
:102F3000B4010E94511E1816A4F54214530414F350
:102F40004981B1018C859D850E947616A1E0B0E093
:102F5000BB87AA8720E030E0A901C501B4010E9427
:102F6000511E181614F01B861A8601E010E020E0AE
:102F700030E0A901C501B4010E94C61C87FD02C052
:102F800000E010E08A859B85801B910B280E391E7E
:102F900020E030E040E85FE3C701B6010E94611C19
:102FA000A7CF2414350464F6ADCFAC85BD85119749
:102FB000BD87AC877DCFAC85BD85A615B7050CF068
:102FC00089CF2D960FB6F894DEBF0FBECDBFDF912F
:102FD000CF911F910F91FF90EF90DF90CF90BF9016
:102FE000AF909F908F907F906F905F904F903F90A9
:102FF0002F9008953F924F925F926F927F928F929F
:103000009F92AF92BF92CF92DF92EF92FF920F9377
:103010001F93CF93DF936C014B01322E85E0489FC5
:1030200020011124E12CF12C80EA481A5108662471
:103030006394712CF201EE0DFF1DED56FE4FE491ED
:10304000311001C0E09500E010E0CE2FD0E0560135
:10305000AE0CBF1CA301002E02C0440F551F0A94E2
:10306000E2F74C235D23002E02C0559547950A9444
:10307000E2F7B401600F711FC5010E9476160F5F61
:103080001F4F0830110531F78FEFE81AF80A85E075
:10309000E816F10479F6DF91CF911F910F91FF901F
:1030A000EF90DF90CF90BF90AF909F908F907F90E8
:1030B0006F905F904F903F900895DF92EF92FF9254
:1030C0000F931F93CF93DF937B018A01D22ED82FCA
:1030D000C0E0F801EC0FF11D4081442349F02D2D93
:1030E000B7018D2F90E00E94FA17DB5FCF5FF1CF21
:1030F000DF91CF911F910F91FF90EF90DF90089596
:1031000025B12F7D30E2839FC0011124822B85B928
:103110005F9887E090E070E08F989B01082E02C0D6
:10312000359527950A94E2F720FF02C02E9A01C038
:103130002E988F9A019780F75F9A0895CF93C82FA2
:10314000579A249A259A269A879A2C985F9A2C9AAD
:1031500061E280E00E9480186C2F606880E00E942D
:10316000801864E080E00E94801863E180E00E94A3
:1031700080186CE080E00E94801860E280E00E948D
:1031800080186CE080E00E94801860E480E00E947B
:10319000801860E880E0CF910C948018CF93C82FFE
:1031A000606480E00E9480186C2F606880E0CF919E
:1031B0000C948018A1E1B0E0E0EEF8E10C94501F0F
:1031C0003C017F876E876A01FC011782168283812A
:1031D00081FD03C06FEF7FEF6FC39E012F5F3F4FF5
:1031E000398B288BF3012381EE85FF8523FD8591A3
:1031F00023FF8191FF87EE87882309F45AC3853224
:1032000051F4EE85FF8523FD859123FF8191FF8792
:10321000EE87853229F490E0B3010E94EA20E2CFE4
:10322000982F10E0882499241032B0F49B3269F072
:103230009C3228F4903251F0933271F40BC09D32DD
:1032400039F0903349F4116028C01260146025C031
:10325000186023C0106121C017FD2AC0892F805338
:103260008A3078F416FF06C0FAE09F9E902C112455
:10327000980E13C03AE0839E802C1124880E1062B1
:103280000CC09E3221F416FD14C3106406C09C3697
:1032900011F4106802C0983659F4EE85FF8523FDBD
:1032A000959123FF9191FF87EE87992309F0BCCF79
:1032B000892F8554833020F4812F8061905E07C070
:1032C000892F8556833008F09FC1812F8F7E86FD20
:1032D00002C076E0972E6FE3F62EF822953619F4A9
:1032E000F0E4FF2A07C0963619F420E8F22A02C05B
:1032F00091109A94F7FE0AC03BE3391518F45CE389
:10330000B52E02C0B92CB39427E009C047E0491597
:1033100020F4BB2447E0942EF7CF292DBB24C6010F
:1033200004969D878C87F6016081718182819381EB
:10333000AE014F5F5F4F0B2D0E94FC1F6C01098196
:10334000202E332400FF04C003FD02C01DE209C08B
:10335000F1FE02C01BE205C0F2FC02C010E001C099
:1033600010E2C1018C709070892BB9F1112311F416
:1033700083E001C084E0881510F088240AC0881A10
:10338000F3FC07C080E290E0B3010E94EA208A9437
:10339000C9F7112329F0812F90E0B3010E94EA20A0
:1033A00023FE03C003E713E00EC007E713E00BC0E2
:1033B000E114F10409F0805290E0B3010E94EA2088
:1033C0000F5F1F4F05C0EF2CFF24F0E1EF22FF2419
:1033D000F8018491882361F714C1F7FE12C0BC0C78
:1033E00024FE04C08A81813309F4BA941B141CF0B2
:1033F000BB24B3942DC0F8E0FB1550F538E0B32E94
:1034000027C0F6FC25C0892D90E08C159D054CF059
:103410002CEFC2162FEFD20624F030E8F32A01C0B9
:103420009A94992049F0E2E0F0E0EC0FFD1FE90DDD
:10343000F11D80818033A1F3F7FE0AC0B92CB3944B
:10344000892D90E0C816D90614F0992401C09C1863
:10345000F7FC03C025E030E009C01C141D041CF07B
:1034600021E030E003C096012F5F3F4F112311F0A0
:103470002F5F3F4F992029F0892D90E00196280F6A
:10348000391F882D90E02817390714F0882401C0CF
:10349000821A4F2C5524C20189709070892B39F003
:1034A00008C080E290E0B3010E94EA208A9488205C
:1034B000C1F7112329F0812F90E0B3010E94EA2087
:1034C00043FE07C008C080E390E0B3010E94EA20F9
:1034D0008A948820C1F7F7FE46C08601D7FE02C055
:1034E00000E010E076010894E11CF11CE01AF10AFA
:1034F00041E050E04C0F5D1FE40EF51E26014B1815
:103500005108892D90E0AA24BB24A81AB90A5FEFBC
:103510000F3F150729F48EE290E0B3010E94EA20E4
:10352000C016D10634F0401651061CF4F701808114
:1035300001C080E3015010400894E11CF11C0A1501
:103540001B052CF090E0B3010E94EA20E0CF0C159F
:103550001D0539F49A81963318F4953311F424FE3D
:1035600081E390E04BC08A81813309F00F7E90E0C7
:10357000B3010E94EA209920A1F08EE290E0B3010D
:103580000E94EA2012E0E1E0F0E0EC0FFD1FE10F05
:10359000F11D1F5F808190E0B3010E94EA209A94A0
:1035A00091F744FC03C085E690E002C085E490E01A
:1035B000B3010E94EA20D7FC05C0C114D10441F434
:1035C00004FF06C0D094C194D108D3948DE201C009
:1035D0008BE290E0B3010E94EA2080E305C08F5F98
:1035E00026EF3FEFC20ED31E3AE0C316D104BCF75C
:1035F00090E0B3010E94EA20C601C096B3010E9488
:10360000EA20CC84DD8452C1933631F0933799F0AF
:10361000933509F059C023C0F601808189835E018A
:103620000894A11CB11C22E030E0C20ED31E21E0A0
:10363000E22EF12C12C0F601A080B18016FD03C06D
:103640006FEF7FEF02C0692D70E022E030E0C20E24
:10365000D31EC5010E94DF207C011F7713C0F60135
:10366000A080B18016FD03C06FEF7FEF02C0692D0F
:1036700070E022E030E0C20ED31EC5010E94D420CB
:103680007C01106813FF07C01BC080E290E0B3010B
:103690000E94EA208A94882D90E0E816F906A8F3A3
:1036A0000FC0F50117FD859117FF81915F0190E033
:1036B000B3010E94EA2081108A940894E108F1087D
:1036C000E114F10471F7F2C0943611F0993689F5DE
:1036D00017FF08C0F601208131814281538184E0C7
:1036E00090E00AC0F601808191819C01442737FD5A
:1036F0004095542F82E090E0C80ED91E9FE6F92E27
:10370000F12257FF09C050954095309521953F4FC4
:103710004F4F5F4F90E8F92ACA01B901AE014F5FE0
:103720005F4F2AE030E00E944021E82EE889EE1A3F
:1037300041C0953721F41F7E2AE030E01CC0197F7C
:103740009F3661F0903720F4983509F0B2C00FC071
:10375000903739F0983709F0ACC004C028E030E069
:103760000AC0106114FD146020E130E004C014FDB3
:10377000166020E132E017FF08C0F6016081718118
:103780008281938144E050E008C0F60180819181FC
:10379000BC0180E090E042E050E0C40ED51EAE01D6
:1037A0004F5F5F4F0E944021E82E5889E51A8FE74E
:1037B000F82EF122F6FE0BC08EEFF822E91438F451
:1037C000F4FE07C0F2FC05C09FEEF92202C01E2DD8
:1037D00001C0192DF4FE0DC0FE01EE0DF11D80811A
:1037E000803319F4E9EEFE2208C01F5FF2FE05C027
:1037F00003C08F2D867809F01F5F0F2DF3FC14C0D6
:10380000F0FE0FC0181510F09E2C0BC09E2C980CCB
:10381000911A182D06C080E290E0B3010E94EA20C0
:103820001F5F1815C0F304C0181510F4811A01C0E9
:10383000882404FF0FC080E390E0B3010E94EA20D7
:1038400002FF1DC001FD03C088E790E00EC088E5BF
:1038500090E00BC0802F867891F001FF02C08BE2D0
:1038600001C080E2F7FC8DE290E0B3010E94EA2003
:1038700006C080E390E0B3010E94EA209A94E91424
:10388000C0F3EA94E1E0F0E0EC0FFD1FEE0DF11D56
:10389000808190E0B3010E94EA20EE2091F706C0FB
:1038A00080E290E0B3010E94EA208A948820C1F768
:1038B00099CCF30166817781CB016196E2E10C94AA
:1038C0006C1F5058BB27AA270ED0A0C169D130F079
:1038D0006ED120F031F49F3F11F41EF45EC10EF45E
:1038E000E095E7FB54C1E92FB3D180F3BA17620723
:1038F00073078407950718F071F49EF5CBC10EF499
:10390000E0950B2EBA2FA02D0B01B90190010C01EF
:10391000CA01A0011124FF27591B99F0593F50F407
:10392000503E68F11A16F040A22F232F342F44275F
:10393000585FF3CF469537952795A795F040539557
:10394000C9F77EF41F16BA0B620B730B840BBAF027
:103950009150A1F0FF0FBB1F661F771F881FC2F792
:103960000EC0BA0F621F731F841F48F487957795A6
:103970006795B795F7959E3F08F0B3CF9395880F5D
:1039800008F09927EE0F979587950895DCD008F4F5
:1039900081E0089514D1E3954AC10CD037C107D115
:1039A00040F0FED030F021F45F3F19F0F0C051112B
:1039B00072C1F3C04DD198F39923C9F35523B1F3E4
:1039C000951B550BBB27AA2762177307840738F08E
:1039D0009F5F5F4F220F331F441FAA1FA9F333D0ED
:1039E0000E2E3AF0E0E830D091505040E695001CA1
:1039F000CAF729D0FE2F27D0660F771F881FBB1F5D
:103A0000261737074807AB07B0E809F0BB0B802D36
:103A1000BF01FF2793585F4F2AF09E3F510568F082
:103A2000B6C039C15F3FECF3983EDCF386957795DD
:103A30006795B795F7959F5FC9F7880F911D969584
:103A4000879597F90895E1E0660F771F881FBB1FE0
:103A5000621773078407BA0720F0621B730B840B8D
:103A6000BA0BEE1F88F7E095089504D06894B11161
:103A700012C10895F5D088F09F5790F0B92F99277B
:103A8000B751A0F0D1F0660F771F881F991F1AF069
:103A9000BA95C9F712C0B13081F0FCD0B1E00895F9
:103AA000F9C0672F782F8827B85F39F0B93FCCF37A
:103AB000869577956795B395D9F73EF4909580955F
:103AC000709561957F4F8F4F9F4F0895E89409C07F
:103AD00097FB3EF490958095709561957F4F8F4F41
:103AE0009F4F9923A9F0F92F96E9BB279395F69557
:103AF000879577956795B795F111F8CFFAF4BB0FD5
:103B000011F460FF1BC06F5F7F4F8F4F9F4F16C038
:103B1000882311F096E911C0772321F09EE8872FC2
:103B2000762F05C0662371F096E8862F70E060E07E
:103B30002AF09A95660F771F881FDAF7880F9695F7
:103B4000879597F90895990F0008550FAA0BE0E89B
:103B5000FEEF16161706E807F907C0F0121613064F
:103B6000E407F50798F0621B730B840B950B39F48F
:103B70000A2661F0232B242B252B21F408950A26F5
:103B800009F4A140A6958FEF811D811D089597F935
:103B90009F6780E870E060E008959FEF80EC0895F3
:103BA00000240A941616170618060906089500241C
:103BB0000A9412161306140605060895EECF50D087
:103BC000E8F3E894E0E0BB279F57F0F02AED3FE0F0
:103BD00049EC06C0EE0FBB0F661F771F881F28F049
:103BE000B23A62077307840728F0B25A620B730B6C
:103BF000840BE3959A9572F7803830F49A95BB0F51
:103C0000661F771F881FD2F79048F5C0092E0394CE
:103C1000000C11F4882352F0BB0F40F4BF2B11F4B9
:103C200060FF04C06F5F7F4F8F4F9F4F0895EF93EA
:103C3000E0FF06C0A2EA2AED3FE049EC5FEB53DE6D
:103C4000E5DF0F90039401FC9058ECEAF0E0DFC050
:103C500057FD9058440F551F59F05F3F71F047953D
:103C6000880F97FB991F61F09F3F79F08795089522
:103C7000121613061406551FF2CF4695F1DF08C041
:103C8000161617061806991FF1CF8695710561055E
:103C900008940895E894BB2766277727CB0197F906
:103CA000089551DF08F48FEF08950BD0AFCF78DF80
:103CB00028F07DDF18F0952309F069CF6ECF11242D
:103CC000EACFC6DFA0F3959FD1F3950F50E0551FC3
:103CD000629FF001729FBB27F00DB11D639FAA2761
:103CE000F00DB11DAA1F649F6627B00DA11D661FB0
:103CF000829F2227B00DA11D621F739FB00DA11DD1
:103D0000621F839FA00D611D221F749F3327A00D8A
:103D1000611D231F849F600D211D822F762F6A2F26
:103D200011249F5750408AF0E1F088234AF0EE0FAB
:103D3000FF1FBB1F661F771F881F91505040A9F7B8
:103D40009E3F510570F023CFA6CF5F3FECF3983E26
:103D5000DCF3869577956795B795F795E7959F5F1F
:103D6000C1F7FE2B880F911D9695879597F90895B9
:103D700077DFE0F09E37D8F09639B8F49E3848F4F3
:103D8000672F782F8827985FF9CF86957795679565
:103D900093959539D0F3B62FB1706B0F711D811DBE
:103DA00020F4879577956795939508C022C073CFC7
:103DB0009F9305DF0F9007FCEE5F39CF882371F4E6
:103DC000772321F09850872B762F07C0662311F4B4
:103DD00099270DC09051862B70E060E02AF09A95EB
:103DE000660F771F881FDAF7880F9695879597F9E2
:103DF00008959F3F31F0915020F48795779567950E
:103E0000B795880F911D9695879597F908959F937B
:103E10008F937F936F93FF93EF939B01AC0145DFEB
:103E2000EF91FF9105D02F913F914F915F913DCF41
:103E3000DF93CF931F930F93FF92EF92DF927B015B
:103E40008C01689405C0DA2EEF013BDFFE01E89497
:103E5000A5912591359145915591AEF3EF0143DD43
:103E6000FE019701A801DA9479F7DF90EF90FF90B7
:103E70000F911F91CF91DF91089597FB092E07268F
:103E80000AD077FD04D043D006D000201AF47095F4
:103E900061957F4F0895F6F7909581959F4F08950E
:103EA0002F923F924F925F926F927F928F929F924A
:103EB000AF92BF92CF92DF92EF92FF920F931F9338
:103EC000CF93DF93CDB7DEB7CA1BDB0B0FB6F894E9
:103ED000DEBF0FBECDBF09942A88398848885F8429
:103EE0006E847D848C849B84AA84B984C884DF809A
:103EF000EE80FD800C811B81AA81B981CE0FD11D7E
:103F00000FB6F894DEBF0FBECDBFED010895AA1B1A
:103F1000BB1B51E107C0AA1FBB1FA617B70710F0B4
:103F2000A61BB70B881F991F5A95A9F780959095E6
:103F3000BC01CD010895A0E0B0E0E1EAFFE10C94FE
:103F4000581FEC01A880B980CA80DB80A114B1049D
:103F5000C104D10441F484E2A82E89EDB82E8BE58A
:103F6000C82E87E0D82EC601B5012DE133EF41E020
:103F700050E00E94BD2127EA31E440E050E00E9479
:103F80009E217B018C01C601B5012DE133EF41E09B
:103F900050E00E94BD21CA01B9012CEE34EF4FEF71
:103FA0005FEF0E949E216E0D7F1D801F911F97FF66
:103FB00004C06150704080409048688379838A8350
:103FC0009B839B013F77C901CDB7DEB7EAE00C9434
:103FD000741F0E949B1F08958AEC92E00E949B1F11
:103FE0000895A0E0B0E08093CA029093CB02A09322
:103FF000CC02B093CD020895283008F027E0332793
:10400000DA01990F311D87FD9160009661057105F8
:1040100039F432602E5F3D9330E32A95E1F708953D
:104020009F3F30F080387105610509F03C5F3C5FCF
:104030003D93913008F08068911DDF93CF931F93DB
:104040000F93FF92EF92192F987F9695E92F9695EF
:104050009695E90FFF27EB52FC4F99273327EE2463
:10406000FF24A701E70105900894079428F4360F70
:10407000E71EF81E491F511D660F771F881F991FE5
:104080000694A1F70590079428F4E70EF81E491F3F
:10409000561FC11D770F881F991F661F0694A1F731
:1040A0000590079428F4F80E491F561FC71FD11D0D
:1040B000880F991F661F771F0694A1F70590079434
:1040C00020F4490F561FC71FD81F990F661F771F6F
:1040D000881F0694A9F784911095177041F0D69522
:1040E000C79557954795F794E7941A95C1F7EBE76D
:1040F000F3E068941590159135916591959105902F
:104100007FE27395E118F10A430B560BC90BD009F6
:10411000C0F7E10CF11E431F561FC91FD01D7EF4CE
:10412000703311F48A95E6CFE894015030F0080F0F
:104130000AF40027021708F4202F2395022F7A3360
:1041400028F079E37D932A95E9F710C07D932A95AD
:1041500089F6069497956795379517951794E11802
:10416000F10A430B560BC90BD00998F023957E91A9
:1041700073957A3308F070E37C932013B8F77E913F
:1041800070617D9330F0839571E37D9370E32A95A0
:10419000E1F71124EF90FF900F911F91CF91DF91E4
:1041A000992787FD90950895FC0105906150704016
:1041B0000110D8F7809590958E0F9F1F0895FC01F0
:1041C0006150704001900110D8F7809590958E0F46
:1041D0009F1F08950F931F93CF93DF938C01EB01E3
:1041E0008B8181FF1BC082FF0DC02E813F818C819E
:1041F0009D812817390764F4E881F9810193F983D7
:10420000E88306C0E885F985802F0995892B31F46C
:104210008E819F8101969F838E8302C00FEF1FEFD7
:10422000C801DF91CF911F910F910895AEE0B0E0EA
:10423000ECE1F1E20C945E1F8C0177FF02C060E0BC
:1042400070E8615070407E836D831A83098386E035
:104250008C83CE010196BA01A9010E94DA182D8142
:104260003E8137FD09C0EF81F8852E173F070CF41A
:10427000F901E00FF11F10822E96E4E00C947A1FF2
:10428000FA01AA27283051F1203181F1E8946F9387
:104290006E7F6E5F7F4F8F4F9F4FAF4FB1E03ED02D
:1042A000B4E03CD0670F781F891F9A1FA11D680FCB
:1042B000791F8A1F911DA11D6A0F711D811D911DFE
:1042C000A11D20D009F468943F912AE0269F112473
:1042D0003019305D3193DEF6CF010895462F4770D7
:1042E000405D4193B3E00FD0C9F7F6CF462F4F7032
:1042F000405D4A3318F0495D31FD4052419302D090
:10430000A9F7EACFB4E0A695979587957795679535
:10431000BA95C9F700976105710508959B01AC0135
:104320000A2E06945795479537952795BA95C9F75C
:10433000620F731F841F951FA01D0895629FD001F7
:10434000739FF001829FE00DF11D649FE00DF11D50
:10435000929FF00D839FF00D749FF00D659FF00DFF
:104360009927729FB00DE11DF91F639FB00DE11DEC
:10437000F91FBD01CF011124089597FB092E0526D1
:104380000ED057FD04D014D00AD0001C38F450953C
:104390004095309521953F4F4F4F5F4F0895F6F769
:1043A00090958095709561957F4F8F4F9F4F0895A1
:1043B000A1E21A2EAA1BBB1BFD010DC0AA1FBB1F29
:1043C000EE1FFF1FA217B307E407F50720F0A21B9B
:1043D000B30BE40BF50B661F771F881F991F1A9408
:1043E00069F760957095809590959B01AC01BD0132
:0843F000CF010895F894FFCFFE
:1043F80025750025640025660047414D45204F5628
:10440800455200526967687420737769746368005D
:10441800746F207374617274206F766572203A2805
:10442800005479726F6E65204E6F6C6173636F0014
:104438006E313032333231313700546F6D20616E56
:1044480064204A65727279004C252E6420485025F4
:104458002E642053252E326420252E32643A252ED0
:10446800326400010001000900000010410500004D
:104478000001000300040000000100030004000123
:104488000002000300010002000300000000000019
:10449800000000010001000100010002000200020A
:1044A800000300030003004F00270000009E4200A5
:1044B800001C420000040000000100020003000488
:1044C80000000002000400010002000300000000D8
:1044D80000010001000100010001000200020002C9
:1044E80000030003000300020000000100000001B7
:1044F80000000000000100010003000100000001AD
:10450800000200000001000100010001000200009B
:104518000003000000020003000000010002000385
:104528000000000000010001000200020002000378
:104538000003000300030005000000020000000162
:10454800000200000000000100010001000A000153
:10455800000200040005000000010002000400053C
:104568000006000000010002000300040005000628
:10457800000100020003000400050002000300041B
:10458800000000000000000000010001000100011F
:104598000001000100020002000200020002000205
:1045A80000020003000300030003000300040004EA
:0E45B80000040000E100000000080100000007
:00000001FF